{
  "contractName": "MerkleMultiProof",
  "abi": [
    {
      "constant": true,
      "inputs": [
        {
          "internalType": "bytes32[]",
          "name": "leafs",
          "type": "bytes32[]"
        },
        {
          "internalType": "bytes32[]",
          "name": "proofs",
          "type": "bytes32[]"
        },
        {
          "internalType": "bool[]",
          "name": "proofFlag",
          "type": "bool[]"
        }
      ],
      "name": "calculateMultiMerkleRoot",
      "outputs": [
        {
          "internalType": "bytes32",
          "name": "merkleRoot",
          "type": "bytes32"
        }
      ],
      "payable": false,
      "stateMutability": "pure",
      "type": "function"
    },
    {
      "constant": true,
      "inputs": [
        {
          "internalType": "bytes32",
          "name": "root",
          "type": "bytes32"
        },
        {
          "internalType": "bytes32[]",
          "name": "leafs",
          "type": "bytes32[]"
        },
        {
          "internalType": "bytes32[]",
          "name": "proofs",
          "type": "bytes32[]"
        },
        {
          "internalType": "bool[]",
          "name": "proofFlag",
          "type": "bool[]"
        }
      ],
      "name": "verifyMultiProof",
      "outputs": [
        {
          "internalType": "bool",
          "name": "",
          "type": "bool"
        }
      ],
      "payable": false,
      "stateMutability": "pure",
      "type": "function"
    }
  ],
  "bytecode": "0x608060405234801561001057600080fd5b50610630806100206000396000f3fe608060405234801561001057600080fd5b50600436106100365760003560e01c80637e0492771461003b578063bf3c160b1461022f575b600080fd5b6102196004803603606081101561005157600080fd5b810190808035906020019064010000000081111561006e57600080fd5b82018360208201111561008057600080fd5b803590602001918460208302840111640100000000831117156100a257600080fd5b919080806020026020016040519081016040528093929190818152602001838360200280828437600081840152601f19601f8201169050808301925050505050505091929192908035906020019064010000000081111561010257600080fd5b82018360208201111561011457600080fd5b8035906020019184602083028401116401000000008311171561013657600080fd5b919080806020026020016040519081016040528093929190818152602001838360200280828437600081840152601f19601f8201169050808301925050505050505091929192908035906020019064010000000081111561019657600080fd5b8201836020820111156101a857600080fd5b803590602001918460208302840111640100000000831117156101ca57600080fd5b919080806020026020016040519081016040528093929190818152602001838360200280828437600081840152601f19601f820116905080830192505050505050509192919290505050610431565b6040518082815260200191505060405180910390f35b6104176004803603608081101561024557600080fd5b81019080803590602001909291908035906020019064010000000081111561026c57600080fd5b82018360208201111561027e57600080fd5b803590602001918460208302840111640100000000831117156102a057600080fd5b919080806020026020016040519081016040528093929190818152602001838360200280828437600081840152601f19601f8201169050808301925050505050505091929192908035906020019064010000000081111561030057600080fd5b82018360208201111561031257600080fd5b8035906020019184602083028401116401000000008311171561033457600080fd5b919080806020026020016040519081016040528093929190818152602001838360200280828437600081840152601f19601f8201169050808301925050505050505091929192908035906020019064010000000081111561039457600080fd5b8201836020820111156103a657600080fd5b803590602001918460208302840111640100000000831117156103c857600080fd5b919080806020026020016040519081016040528093929190818152602001838360200280828437600081840152601f19601f82011690508083019250505050505050919291929050505061059d565b604051808215151515815260200191505060405180910390f35b6000808451905060008351905060608160405190808252806020026020018201604052801561046f5781602001602082028038833980820191505090505b50905060008090506000809050600080905060008090505b858110156105765761055189828151811061049e57fe5b60200260200101516104c9578a83806001019450815181106104bc57fe5b602002602001015161050b565b8785106104ef578584806001019550815181106104e257fe5b602002602001015161050a565b8b858060010196508151811061050157fe5b60200260200101515b5b8886106105315786858060010196508151811061052457fe5b602002602001015161054c565b8c868060010197508151811061054357fe5b60200260200101515b6105b6565b85828151811061055d57fe5b6020026020010181815250508080600101915050610487565b5083600186038151811061058657fe5b602002602001015196505050505050509392505050565b6000846105ab858585610431565b149050949350505050565b60008183106105ce576105c982846105e1565b6105d9565b6105d883836105e1565b5b905092915050565b60008260005281602052604060002090508090509291505056fea265627a7a7231582009fecc190045c295c096183d106955258afcf929cd133acaf2b6303ac01ecba964736f6c63430005100032",
  "source": "// // SPDX-License-Identifier: MIT\npragma solidity >=0.5.16;\n\ncontract MerkleMultiProof {\n\n   /**\n     * @notice Calculates a merkle root using multiple leafs at same time\n     * @param leafs out of order sequence of leafs and it's siblings\n     * @param proofs out of order sequence of parent proofs\n     * @param proofFlag flags for using or not proofs while hashing against hashes.\n     * return merkle root of tree\n     */\n    function calculateMultiMerkleRoot(\n        bytes32[] memory leafs,\n        bytes32[] memory proofs,\n        bool[] memory proofFlag\n    )\n        public\n        pure\n        returns (bytes32 merkleRoot)\n    {\n        uint256 leafsLen = leafs.length;\n        uint256 totalHashes = proofFlag.length;\n        bytes32[] memory hashes = new bytes32[](totalHashes);\n        uint leafPos = 0;\n        uint hashPos = 0;\n        uint proofPos = 0;\n        for(uint256 i = 0; i < totalHashes; i++){\n            hashes[i] = hashPair(\n                proofFlag[i] ? (leafPos < leafsLen ? leafs[leafPos++] : hashes[hashPos++]) : proofs[proofPos++],\n                leafPos < leafsLen ? leafs[leafPos++] : hashes[hashPos++]\n            );\n        }\n\n        return hashes[totalHashes-1];\n    }\n\n    function hashPair(bytes32 a, bytes32 b) private pure returns(bytes32){\n        return a < b ? hash_node(a, b) : hash_node(b, a);\n    }\n\n    function hash_node(bytes32 left, bytes32 right)\n        private pure\n        returns (bytes32 hash)\n    {\n        assembly {\n            mstore(0x00, left)\n            mstore(0x20, right)\n            hash := keccak256(0x00, 0x40)\n        }\n        return hash;\n    }\n\n    /**\n     * @notice Check validity of multimerkle proof\n     * @param root merkle root\n     * @param leafs out of order sequence of leafs and it's siblings\n     * @param proofs out of order sequence of parent proofs\n     * @param proofFlag flags for using or not proofs while hashing against hashes.\n     */\n    function verifyMultiProof(\n        bytes32 root,\n        bytes32[] memory leafs,\n        bytes32[] memory proofs,\n        bool[] memory proofFlag\n    )\n        public\n        pure\n        returns (bool)\n    {\n        return calculateMultiMerkleRoot(leafs, proofs, proofFlag) == root;\n    }\n\n}",
  "sourcePath": "/home/hrx/nodetest/MeteCoin/metacoin-box/contracts/MerkleMultiProof.sol",
  "compiler": {
    "name": "solc",
    "version": "0.5.16+commit.9c3226ce.Emscripten.clang"
  },
  "schemaVersion": "3.4.3",
  "updatedAt": "2021-12-03T11:34:10.944Z",
  "devdoc": {
    "methods": {
      "calculateMultiMerkleRoot(bytes32[],bytes32[],bool[])": {
        "params": {
          "leafs": "out of order sequence of leafs and it's siblings",
          "proofFlag": "flags for using or not proofs while hashing against hashes. return merkle root of tree",
          "proofs": "out of order sequence of parent proofs"
        }
      },
      "verifyMultiProof(bytes32,bytes32[],bytes32[],bool[])": {
        "params": {
          "leafs": "out of order sequence of leafs and it's siblings",
          "proofFlag": "flags for using or not proofs while hashing against hashes.",
          "proofs": "out of order sequence of parent proofs",
          "root": "merkle root"
        }
      }
    }
  },
  "userdoc": {
    "methods": {
      "calculateMultiMerkleRoot(bytes32[],bytes32[],bool[])": {
        "notice": "Calculates a merkle root using multiple leafs at same time"
      },
      "verifyMultiProof(bytes32,bytes32[],bytes32[],bool[])": {
        "notice": "Check validity of multimerkle proof"
      }
    }
  }
}