{
  "contractName": "MerkleMultiProof",
  "abi": [
    {
      "inputs": [
        {
          "internalType": "bytes32[]",
          "name": "leafs",
          "type": "bytes32[]"
        },
        {
          "internalType": "bytes32[]",
          "name": "proofs",
          "type": "bytes32[]"
        },
        {
          "internalType": "bool[]",
          "name": "proofFlag",
          "type": "bool[]"
        }
      ],
      "name": "calculateMultiMerkleRoot",
      "outputs": [
        {
          "internalType": "bytes32",
          "name": "merkleRoot",
          "type": "bytes32"
        }
      ],
      "stateMutability": "pure",
      "type": "function"
    },
    {
      "inputs": [
        {
          "internalType": "bytes32",
          "name": "root",
          "type": "bytes32"
        },
        {
          "internalType": "bytes32[]",
          "name": "leafs",
          "type": "bytes32[]"
        },
        {
          "internalType": "bytes32[]",
          "name": "proofs",
          "type": "bytes32[]"
        },
        {
          "internalType": "bool[]",
          "name": "proofFlag",
          "type": "bool[]"
        }
      ],
      "name": "verifyMultiProof",
      "outputs": [
        {
          "internalType": "bool",
          "name": "",
          "type": "bool"
        }
      ],
      "stateMutability": "pure",
      "type": "function"
    }
  ],
  "bytecode": "0x608060405234801561001057600080fd5b50610841806100206000396000f3fe608060405234801561001057600080fd5b50600436106100365760003560e01c80637e0492771461003b578063bf3c160b1461006b575b600080fd5b61005560048036038101906100509190610570565b61009b565b6040516100629190610626565b60405180910390f35b61008560048036038101906100809190610641565b610277565b604051610092919061070b565b60405180910390f35b6000808451905060008351905060008167ffffffffffffffff8111156100c4576100c36102fc565b5b6040519080825280602002602001820160405280156100f25781602001602082028036833780820191505090505b5090506000806000805b858110156102405761020e89828151811061011a57610119610726565b5b6020026020010151610152578a83806101329061078e565b94508151811061014557610144610726565b5b60200260200101516101ae565b878510610185578584806101659061078e565b95508151811061017857610177610726565b5b60200260200101516101ad565b8b85806101919061078e565b9650815181106101a4576101a3610726565b5b60200260200101515b5b8886106101e1578685806101c19061078e565b9650815181106101d4576101d3610726565b5b6020026020010151610209565b8c86806101ed9061078e565b975081518110610200576101ff610726565b5b60200260200101515b610290565b85828151811061022157610220610726565b5b60200260200101818152505080806102389061078e565b9150506100fc565b508360018661024f91906107d7565b815181106102605761025f610726565b5b602002602001015196505050505050509392505050565b60008461028585858561009b565b149050949350505050565b60008183106102a8576102a382846102bb565b6102b3565b6102b283836102bb565b5b905092915050565b600082600052816020526040600020905092915050565b6000604051905090565b600080fd5b600080fd5b600080fd5b6000601f19601f8301169050919050565b7f4e487b7100000000000000000000000000000000000000000000000000000000600052604160045260246000fd5b610334826102eb565b810181811067ffffffffffffffff82111715610353576103526102fc565b5b80604052505050565b60006103666102d2565b9050610372828261032b565b919050565b600067ffffffffffffffff821115610392576103916102fc565b5b602082029050602081019050919050565b600080fd5b6000819050919050565b6103bb816103a8565b81146103c657600080fd5b50565b6000813590506103d8816103b2565b92915050565b60006103f16103ec84610377565b61035c565b90508083825260208201905060208402830185811115610414576104136103a3565b5b835b8181101561043d578061042988826103c9565b845260208401935050602081019050610416565b5050509392505050565b600082601f83011261045c5761045b6102e6565b5b813561046c8482602086016103de565b91505092915050565b600067ffffffffffffffff8211156104905761048f6102fc565b5b602082029050602081019050919050565b60008115159050919050565b6104b6816104a1565b81146104c157600080fd5b50565b6000813590506104d3816104ad565b92915050565b60006104ec6104e784610475565b61035c565b9050808382526020820190506020840283018581111561050f5761050e6103a3565b5b835b81811015610538578061052488826104c4565b845260208401935050602081019050610511565b5050509392505050565b600082601f830112610557576105566102e6565b5b81356105678482602086016104d9565b91505092915050565b600080600060608486031215610589576105886102dc565b5b600084013567ffffffffffffffff8111156105a7576105a66102e1565b5b6105b386828701610447565b935050602084013567ffffffffffffffff8111156105d4576105d36102e1565b5b6105e086828701610447565b925050604084013567ffffffffffffffff811115610601576106006102e1565b5b61060d86828701610542565b9150509250925092565b610620816103a8565b82525050565b600060208201905061063b6000830184610617565b92915050565b6000806000806080858703121561065b5761065a6102dc565b5b6000610669878288016103c9565b945050602085013567ffffffffffffffff81111561068a576106896102e1565b5b61069687828801610447565b935050604085013567ffffffffffffffff8111156106b7576106b66102e1565b5b6106c387828801610447565b925050606085013567ffffffffffffffff8111156106e4576106e36102e1565b5b6106f087828801610542565b91505092959194509250565b610705816104a1565b82525050565b600060208201905061072060008301846106fc565b92915050565b7f4e487b7100000000000000000000000000000000000000000000000000000000600052603260045260246000fd5b7f4e487b7100000000000000000000000000000000000000000000000000000000600052601160045260246000fd5b6000819050919050565b600061079982610784565b91507fffffffffffffffffffffffffffffffffffffffffffffffffffffffffffffffff8214156107cc576107cb610755565b5b600182019050919050565b60006107e282610784565b91506107ed83610784565b925082821015610800576107ff610755565b5b82820390509291505056fea26469706673582212205da45c5405115fa2bcdb0394b4a744cb52a20712c42f541fc40d16565c61646864736f6c634300080a0033",
  "immutableReferences": {},
  "source": "// // SPDX-License-Identifier: MIT\npragma solidity >=0.8.10;\n\ncontract MerkleMultiProof {\n\n   /**\n     * @notice Calculates a merkle root using multiple leafs at same time\n     * @param leafs out of order sequence of leafs and it's siblings\n     * @param proofs out of order sequence of parent proofs\n     * @param proofFlag flags for using or not proofs while hashing against hashes.\n     * return merkle root of tree\n     */\n    function calculateMultiMerkleRoot(\n        bytes32[] memory leafs,\n        bytes32[] memory proofs,\n        bool[] memory proofFlag\n    )\n        public\n        pure\n        returns (bytes32 merkleRoot)\n    {\n        uint256 leafsLen = leafs.length;\n        uint256 totalHashes = proofFlag.length;\n        bytes32[] memory hashes = new bytes32[](totalHashes);\n        uint leafPos = 0;\n        uint hashPos = 0;\n        uint proofPos = 0;\n        for(uint256 i = 0; i < totalHashes; i++){\n            hashes[i] = hashPair(\n                proofFlag[i] ? (leafPos < leafsLen ? leafs[leafPos++] : hashes[hashPos++]) : proofs[proofPos++],\n                leafPos < leafsLen ? leafs[leafPos++] : hashes[hashPos++]\n            );\n        }\n\n        return hashes[totalHashes-1];\n    }\n\n    function hashPair(bytes32 a, bytes32 b) private pure returns(bytes32){\n        return a < b ? hash_node(a, b) : hash_node(b, a);\n    }\n\n    function hash_node(bytes32 left, bytes32 right)\n        private pure\n        returns (bytes32 hash)\n    {\n        assembly {\n            mstore(0x00, left)\n            mstore(0x20, right)\n            hash := keccak256(0x00, 0x40)\n        }\n        return hash;\n    }\n\n    /**\n     * @notice Check validity of multimerkle proof\n     * @param root merkle root\n     * @param leafs out of order sequence of leafs and it's siblings\n     * @param proofs out of order sequence of parent proofs\n     * @param proofFlag flags for using or not proofs while hashing against hashes.\n     */\n    function verifyMultiProof(\n        bytes32 root,\n        bytes32[] memory leafs,\n        bytes32[] memory proofs,\n        bool[] memory proofFlag\n    )\n        public\n        pure\n        returns (bool)\n    {\n        return calculateMultiMerkleRoot(leafs, proofs, proofFlag) == root;\n    }\n\n}",
  "sourcePath": "/home/hrx/nodetest/MeteCoin/metacoin-box/contracts/MerkleMultiProof.sol",
  "compiler": {
    "name": "solc",
    "version": "0.8.10+commit.fc410830.Emscripten.clang"
  },
  "schemaVersion": "3.4.3",
  "updatedAt": "2021-12-14T12:22:39.346Z",
  "devdoc": {
    "kind": "dev",
    "methods": {
      "calculateMultiMerkleRoot(bytes32[],bytes32[],bool[])": {
        "params": {
          "leafs": "out of order sequence of leafs and it's siblings",
          "proofFlag": "flags for using or not proofs while hashing against hashes. return merkle root of tree",
          "proofs": "out of order sequence of parent proofs"
        }
      },
      "verifyMultiProof(bytes32,bytes32[],bytes32[],bool[])": {
        "params": {
          "leafs": "out of order sequence of leafs and it's siblings",
          "proofFlag": "flags for using or not proofs while hashing against hashes.",
          "proofs": "out of order sequence of parent proofs",
          "root": "merkle root"
        }
      }
    },
    "version": 1
  },
  "userdoc": {
    "kind": "user",
    "methods": {
      "calculateMultiMerkleRoot(bytes32[],bytes32[],bool[])": {
        "notice": "Calculates a merkle root using multiple leafs at same time"
      },
      "verifyMultiProof(bytes32,bytes32[],bytes32[],bool[])": {
        "notice": "Check validity of multimerkle proof"
      }
    },
    "version": 1
  }
}