{
  "contractName": "MetaCoin",
  "abi": [
    {
      "inputs": [],
      "payable": false,
      "stateMutability": "nonpayable",
      "type": "constructor"
    },
    {
      "constant": true,
      "inputs": [],
      "name": "_allBalances",
      "outputs": [
        {
          "internalType": "uint256",
          "name": "",
          "type": "uint256"
        }
      ],
      "payable": false,
      "stateMutability": "view",
      "type": "function"
    },
    {
      "constant": true,
      "inputs": [],
      "name": "_allCollateral",
      "outputs": [
        {
          "internalType": "uint256",
          "name": "",
          "type": "uint256"
        }
      ],
      "payable": false,
      "stateMutability": "view",
      "type": "function"
    },
    {
      "constant": true,
      "inputs": [
        {
          "internalType": "address",
          "name": "",
          "type": "address"
        }
      ],
      "name": "_balancesOfParticipate",
      "outputs": [
        {
          "internalType": "uint256",
          "name": "",
          "type": "uint256"
        }
      ],
      "payable": false,
      "stateMutability": "view",
      "type": "function"
    },
    {
      "constant": true,
      "inputs": [
        {
          "internalType": "address",
          "name": "",
          "type": "address"
        }
      ],
      "name": "_collateralOfValidator",
      "outputs": [
        {
          "internalType": "uint256",
          "name": "",
          "type": "uint256"
        }
      ],
      "payable": false,
      "stateMutability": "view",
      "type": "function"
    },
    {
      "constant": true,
      "inputs": [],
      "name": "_currentRoot",
      "outputs": [
        {
          "internalType": "bytes32",
          "name": "",
          "type": "bytes32"
        }
      ],
      "payable": false,
      "stateMutability": "view",
      "type": "function"
    },
    {
      "constant": true,
      "inputs": [],
      "name": "_leader",
      "outputs": [
        {
          "internalType": "address payable",
          "name": "",
          "type": "address"
        }
      ],
      "payable": false,
      "stateMutability": "view",
      "type": "function"
    },
    {
      "constant": true,
      "inputs": [],
      "name": "_leaderIndex",
      "outputs": [
        {
          "internalType": "uint256",
          "name": "",
          "type": "uint256"
        }
      ],
      "payable": false,
      "stateMutability": "view",
      "type": "function"
    },
    {
      "constant": true,
      "inputs": [
        {
          "internalType": "uint256",
          "name": "",
          "type": "uint256"
        }
      ],
      "name": "_participates",
      "outputs": [
        {
          "internalType": "address payable",
          "name": "",
          "type": "address"
        }
      ],
      "payable": false,
      "stateMutability": "view",
      "type": "function"
    },
    {
      "constant": true,
      "inputs": [
        {
          "internalType": "address",
          "name": "",
          "type": "address"
        }
      ],
      "name": "_participatesBook",
      "outputs": [
        {
          "internalType": "bool",
          "name": "",
          "type": "bool"
        }
      ],
      "payable": false,
      "stateMutability": "view",
      "type": "function"
    },
    {
      "constant": true,
      "inputs": [],
      "name": "_phase",
      "outputs": [
        {
          "internalType": "enum MetaCoin.Phase",
          "name": "",
          "type": "uint8"
        }
      ],
      "payable": false,
      "stateMutability": "view",
      "type": "function"
    },
    {
      "constant": true,
      "inputs": [
        {
          "internalType": "uint256",
          "name": "",
          "type": "uint256"
        }
      ],
      "name": "_usedNonces",
      "outputs": [
        {
          "internalType": "bool",
          "name": "",
          "type": "bool"
        }
      ],
      "payable": false,
      "stateMutability": "view",
      "type": "function"
    },
    {
      "constant": true,
      "inputs": [
        {
          "internalType": "uint256",
          "name": "",
          "type": "uint256"
        }
      ],
      "name": "_validators",
      "outputs": [
        {
          "internalType": "address payable",
          "name": "",
          "type": "address"
        }
      ],
      "payable": false,
      "stateMutability": "view",
      "type": "function"
    },
    {
      "constant": true,
      "inputs": [
        {
          "internalType": "address",
          "name": "",
          "type": "address"
        }
      ],
      "name": "_validatorsBook",
      "outputs": [
        {
          "internalType": "bool",
          "name": "",
          "type": "bool"
        }
      ],
      "payable": false,
      "stateMutability": "view",
      "type": "function"
    },
    {
      "constant": false,
      "inputs": [],
      "name": "candidateFund",
      "outputs": [],
      "payable": true,
      "stateMutability": "payable",
      "type": "function"
    },
    {
      "constant": false,
      "inputs": [],
      "name": "participatesFund",
      "outputs": [],
      "payable": true,
      "stateMutability": "payable",
      "type": "function"
    },
    {
      "constant": true,
      "inputs": [
        {
          "internalType": "address",
          "name": "pk",
          "type": "address"
        },
        {
          "internalType": "bytes32",
          "name": "message",
          "type": "bytes32"
        },
        {
          "components": [
            {
              "internalType": "uint8",
              "name": "v",
              "type": "uint8"
            },
            {
              "internalType": "bytes32",
              "name": "r",
              "type": "bytes32"
            },
            {
              "internalType": "bytes32",
              "name": "s",
              "type": "bytes32"
            }
          ],
          "internalType": "struct MetaCoin.ECSignature",
          "name": "sig",
          "type": "tuple"
        }
      ],
      "name": "checkPrefixedSig",
      "outputs": [
        {
          "internalType": "bool",
          "name": "",
          "type": "bool"
        }
      ],
      "payable": false,
      "stateMutability": "pure",
      "type": "function"
    },
    {
      "constant": true,
      "inputs": [
        {
          "components": [
            {
              "internalType": "address",
              "name": "account",
              "type": "address"
            },
            {
              "internalType": "bytes32",
              "name": "root",
              "type": "bytes32"
            }
          ],
          "internalType": "struct MetaCoin.RootState",
          "name": "stateRoot",
          "type": "tuple"
        },
        {
          "components": [
            {
              "internalType": "uint8",
              "name": "v",
              "type": "uint8"
            },
            {
              "internalType": "bytes32",
              "name": "r",
              "type": "bytes32"
            },
            {
              "internalType": "bytes32",
              "name": "s",
              "type": "bytes32"
            }
          ],
          "internalType": "struct MetaCoin.ECSignature",
          "name": "sig",
          "type": "tuple"
        }
      ],
      "name": "validRoot",
      "outputs": [
        {
          "internalType": "bool",
          "name": "",
          "type": "bool"
        }
      ],
      "payable": false,
      "stateMutability": "view",
      "type": "function"
    },
    {
      "constant": true,
      "inputs": [
        {
          "components": [
            {
              "internalType": "address",
              "name": "account",
              "type": "address"
            },
            {
              "internalType": "bytes32",
              "name": "root",
              "type": "bytes32"
            }
          ],
          "internalType": "struct MetaCoin.RootState[]",
          "name": "stateRootArr",
          "type": "tuple[]"
        },
        {
          "components": [
            {
              "internalType": "uint8",
              "name": "v",
              "type": "uint8"
            },
            {
              "internalType": "bytes32",
              "name": "r",
              "type": "bytes32"
            },
            {
              "internalType": "bytes32",
              "name": "s",
              "type": "bytes32"
            }
          ],
          "internalType": "struct MetaCoin.ECSignature[]",
          "name": "sigArr",
          "type": "tuple[]"
        }
      ],
      "name": "validBatchOfRoot",
      "outputs": [
        {
          "internalType": "bool",
          "name": "",
          "type": "bool"
        }
      ],
      "payable": false,
      "stateMutability": "view",
      "type": "function"
    },
    {
      "constant": false,
      "inputs": [
        {
          "internalType": "uint256[]",
          "name": "balancesArr",
          "type": "uint256[]"
        },
        {
          "components": [
            {
              "internalType": "address",
              "name": "account",
              "type": "address"
            },
            {
              "internalType": "bytes32",
              "name": "root",
              "type": "bytes32"
            }
          ],
          "internalType": "struct MetaCoin.RootState[]",
          "name": "stateArr",
          "type": "tuple[]"
        },
        {
          "components": [
            {
              "internalType": "uint8",
              "name": "v",
              "type": "uint8"
            },
            {
              "internalType": "bytes32",
              "name": "r",
              "type": "bytes32"
            },
            {
              "internalType": "bytes32",
              "name": "s",
              "type": "bytes32"
            }
          ],
          "internalType": "struct MetaCoin.ECSignature[]",
          "name": "sigArr",
          "type": "tuple[]"
        },
        {
          "internalType": "bytes32",
          "name": "root",
          "type": "bytes32"
        },
        {
          "internalType": "bytes32[]",
          "name": "leafs",
          "type": "bytes32[]"
        },
        {
          "internalType": "bytes32[]",
          "name": "proofs",
          "type": "bytes32[]"
        },
        {
          "internalType": "bool[]",
          "name": "proofFlag",
          "type": "bool[]"
        }
      ],
      "name": "updateState",
      "outputs": [
        {
          "internalType": "bool",
          "name": "",
          "type": "bool"
        }
      ],
      "payable": false,
      "stateMutability": "nonpayable",
      "type": "function"
    },
    {
      "constant": true,
      "inputs": [
        {
          "components": [
            {
              "internalType": "address",
              "name": "from",
              "type": "address"
            },
            {
              "internalType": "address",
              "name": "to",
              "type": "address"
            },
            {
              "internalType": "uint256",
              "name": "amounts",
              "type": "uint256"
            },
            {
              "internalType": "uint256",
              "name": "nonce",
              "type": "uint256"
            }
          ],
          "internalType": "struct MetaCoin.Payment",
          "name": "payment",
          "type": "tuple"
        },
        {
          "components": [
            {
              "internalType": "uint8",
              "name": "v",
              "type": "uint8"
            },
            {
              "internalType": "bytes32",
              "name": "r",
              "type": "bytes32"
            },
            {
              "internalType": "bytes32",
              "name": "s",
              "type": "bytes32"
            }
          ],
          "internalType": "struct MetaCoin.ECSignature",
          "name": "sig",
          "type": "tuple"
        }
      ],
      "name": "validPayment",
      "outputs": [
        {
          "internalType": "bool",
          "name": "",
          "type": "bool"
        }
      ],
      "payable": false,
      "stateMutability": "view",
      "type": "function"
    },
    {
      "constant": true,
      "inputs": [
        {
          "components": [
            {
              "internalType": "address",
              "name": "from",
              "type": "address"
            },
            {
              "internalType": "address",
              "name": "to",
              "type": "address"
            },
            {
              "internalType": "uint256",
              "name": "amounts",
              "type": "uint256"
            },
            {
              "internalType": "uint256",
              "name": "nonce",
              "type": "uint256"
            }
          ],
          "internalType": "struct MetaCoin.Payment[]",
          "name": "paymentArr",
          "type": "tuple[]"
        },
        {
          "components": [
            {
              "internalType": "uint8",
              "name": "v",
              "type": "uint8"
            },
            {
              "internalType": "bytes32",
              "name": "r",
              "type": "bytes32"
            },
            {
              "internalType": "bytes32",
              "name": "s",
              "type": "bytes32"
            }
          ],
          "internalType": "struct MetaCoin.ECSignature[]",
          "name": "sigArr",
          "type": "tuple[]"
        }
      ],
      "name": "validBatchOfPayment",
      "outputs": [
        {
          "internalType": "bool",
          "name": "",
          "type": "bool"
        }
      ],
      "payable": false,
      "stateMutability": "view",
      "type": "function"
    },
    {
      "constant": false,
      "inputs": [
        {
          "components": [
            {
              "internalType": "address",
              "name": "from",
              "type": "address"
            },
            {
              "internalType": "address",
              "name": "to",
              "type": "address"
            },
            {
              "internalType": "uint256",
              "name": "amounts",
              "type": "uint256"
            },
            {
              "internalType": "uint256",
              "name": "nonce",
              "type": "uint256"
            }
          ],
          "internalType": "struct MetaCoin.Payment[]",
          "name": "paymentArr",
          "type": "tuple[]"
        },
        {
          "components": [
            {
              "internalType": "uint8",
              "name": "v",
              "type": "uint8"
            },
            {
              "internalType": "bytes32",
              "name": "r",
              "type": "bytes32"
            },
            {
              "internalType": "bytes32",
              "name": "s",
              "type": "bytes32"
            }
          ],
          "internalType": "struct MetaCoin.ECSignature[]",
          "name": "sigArr",
          "type": "tuple[]"
        }
      ],
      "name": "updatePayment",
      "outputs": [
        {
          "internalType": "bool",
          "name": "",
          "type": "bool"
        }
      ],
      "payable": false,
      "stateMutability": "nonpayable",
      "type": "function"
    },
    {
      "constant": false,
      "inputs": [
        {
          "internalType": "bytes32",
          "name": "root",
          "type": "bytes32"
        },
        {
          "internalType": "bytes32[]",
          "name": "leafs",
          "type": "bytes32[]"
        },
        {
          "internalType": "bytes32[]",
          "name": "proofs",
          "type": "bytes32[]"
        },
        {
          "internalType": "bool[]",
          "name": "proofFlag",
          "type": "bool[]"
        }
      ],
      "name": "validMerkleRoot",
      "outputs": [
        {
          "internalType": "bool",
          "name": "",
          "type": "bool"
        }
      ],
      "payable": false,
      "stateMutability": "nonpayable",
      "type": "function"
    },
    {
      "constant": true,
      "inputs": [],
      "name": "selectLeader",
      "outputs": [
        {
          "internalType": "uint256",
          "name": "",
          "type": "uint256"
        }
      ],
      "payable": false,
      "stateMutability": "view",
      "type": "function"
    }
  ],
  "bytecode": "0x608060405234801561001057600080fd5b5060008060006101000a81548160ff0219169083600581111561002f57fe5b0217905550600060048190555060006009819055506000600881905550612dc08061005b6000396000f3fe60806040526004361061014b5760003560e01c80638bd8d6fa116100b6578063bedb33dd1161006f578063bedb33dd146104e9578063da2bf22914610526578063ddad7f1a14610563578063deae06a9146105a0578063e5935d8a146105dd578063f90ecacc146105e75761014b565b80638bd8d6fa146103b157806397301059146103ee578063977548da14610419578063995162d914610456578063ab1f3e1714610481578063b1f105be146104ac5761014b565b80634e91b43d116101085780634e91b43d1461026757806356c0ec1e146102a4578063579b9757146102cf5780635fc5699e1461030c57806365bfd612146103495780636a9c8ff3146103745761014b565b80630334acfe1461015057806307396b911461017b5780632964225f146101b85780633ad5139f146101f55780633f2dd020146101ff57806342a029e41461023c575b600080fd5b34801561015c57600080fd5b50610165610624565b60405161017291906122fc565b60405180910390f35b34801561018757600080fd5b506101a2600480360361019d9190810190611bd0565b61062a565b6040516101af91906122e1565b60405180910390f35b3480156101c457600080fd5b506101df60048036036101da9190810190611f9a565b61064a565b6040516101ec91906122e1565b60405180910390f35b6101fd61066a565b005b34801561020b57600080fd5b5061022660048036036102219190810190611d20565b610877565b60405161023391906122e1565b60405180910390f35b34801561024857600080fd5b50610251610952565b60405161025e9190612447565b60405180910390f35b34801561027357600080fd5b5061028e60048036036102899190810190611bf9565b610958565b60405161029b91906122e1565b60405180910390f35b3480156102b057600080fd5b506102b9610a17565b6040516102c69190612447565b60405180910390f35b3480156102db57600080fd5b506102f660048036036102f19190810190611f22565b610ba5565b60405161030391906122e1565b60405180910390f35b34801561031857600080fd5b50610333600480360361032e9190810190611c48565b610dae565b60405161034091906122e1565b60405180910390f35b34801561035557600080fd5b5061035e610e87565b60405161036b91906122c6565b60405180910390f35b34801561038057600080fd5b5061039b60048036036103969190810190611f5e565b610ead565b6040516103a891906122e1565b60405180910390f35b3480156103bd57600080fd5b506103d860048036036103d39190810190611c48565b610f69565b6040516103e591906122e1565b60405180910390f35b3480156103fa57600080fd5b50610403611178565b60405161041091906123b6565b60405180910390f35b34801561042557600080fd5b50610440600480360361043b9190810190611bd0565b61118a565b60405161044d91906122e1565b60405180910390f35b34801561046257600080fd5b5061046b6111aa565b6040516104789190612447565b60405180910390f35b34801561048d57600080fd5b506104966111b0565b6040516104a39190612447565b60405180910390f35b3480156104b857600080fd5b506104d360048036036104ce9190810190611f9a565b6111b6565b6040516104e091906122c6565b60405180910390f35b3480156104f557600080fd5b50610510600480360361050b9190810190611e77565b6111f2565b60405161051d91906122e1565b60405180910390f35b34801561053257600080fd5b5061054d60048036036105489190810190611bd0565b6112b5565b60405161055a9190612447565b60405180910390f35b34801561056f57600080fd5b5061058a60048036036105859190810190611bd0565b6112cd565b6040516105979190612447565b60405180910390f35b3480156105ac57600080fd5b506105c760048036036105c29190810190611cb4565b6112e5565b6040516105d491906122e1565b60405180910390f35b6105e5611377565b005b3480156105f357600080fd5b5061060e60048036036106099190810190611f9a565b6115b7565b60405161061b91906122c6565b60405180910390f35b600c5481565b60026020528060005260406000206000915054906101000a900460ff1681565b600b6020528060005260406000206000915054906101000a900460ff1681565b600180600581111561067857fe5b6000809054906101000a900460ff16600581111561069257fe5b146106d2576040517f08c379a00000000000000000000000000000000000000000000000000000000081526004016106c9906123d1565b60405180910390fd5b600454341115610717576040517f08c379a000000000000000000000000000000000000000000000000000000000815260040161070e906123f1565b60405180910390fd5b6004546008541061072757600080fd5b60053390806001815401808255809150509060018203906000526020600020016000909192909190916101000a81548173ffffffffffffffffffffffffffffffffffffffff021916908373ffffffffffffffffffffffffffffffffffffffff160217905550506001600660003373ffffffffffffffffffffffffffffffffffffffff1673ffffffffffffffffffffffffffffffffffffffff16815260200190815260200160002060006101000a81548160ff02191690831515021790555034600760003373ffffffffffffffffffffffffffffffffffffffff1673ffffffffffffffffffffffffffffffffffffffff1681526020019081526020016000206000828254019250508190555034600860008282540192505081905550600a60058054905014156108745760036000806101000a81548160ff0219169083600581111561086e57fe5b02179055505b50565b600061088387876112e5565b6108905760009050610947565b84600c8190555060008090505b8851811015610941578881815181106108b257fe5b602002602001015160076000600584815481106108cb57fe5b9060005260206000200160009054906101000a900473ffffffffffffffffffffffffffffffffffffffff1673ffffffffffffffffffffffffffffffffffffffff1673ffffffffffffffffffffffffffffffffffffffff16815260200190815260200160002081905550808060010191505061089d565b50600190505b979650505050505050565b60085481565b6000808360405160200161096c91906122a0565b6040516020818303038152906040528051906020012090508473ffffffffffffffffffffffffffffffffffffffff16600182856000015186602001518760400151604051600081526020016040526040516109ca9493929190612371565b6020604051602081039080840390855afa1580156109ec573d6000803e3d6000fd5b5050506020604051035173ffffffffffffffffffffffffffffffffffffffff16149150509392505050565b60008060001b600c541415610a2f5760009050610ba2565b60008090506060600180549050604051908082528060200260200182016040528015610a6a5781602001602082028038833980820191505090505b50905060008090505b600180549050811015610b21576003600060018381548110610a9157fe5b9060005260206000200160009054906101000a900473ffffffffffffffffffffffffffffffffffffffff1673ffffffffffffffffffffffffffffffffffffffff1673ffffffffffffffffffffffffffffffffffffffff168152602001908152602001600020548301925082828281518110610b0857fe5b6020026020010181815250508080600101915050610a73565b50600082600c54604051602001610b3891906122fc565b6040516020818303038152906040528051906020012060001c81610b5857fe5b06905060008090505b8251811015610b9d57828181518110610b7657fe5b60200260200101518211610b905780945050505050610ba2565b8080600101915050610b61565b505050505b90565b60006003806005811115610bb557fe5b6000809054906101000a900460ff166005811115610bcf57fe5b14610c0f576040517f08c379a0000000000000000000000000000000000000000000000000000000008152600401610c06906123d1565b60405180910390fd5b60011515600b60008660600151815260200190815260200160002060009054906101000a900460ff1615151480610c9a57506000151560066000866000015173ffffffffffffffffffffffffffffffffffffffff1673ffffffffffffffffffffffffffffffffffffffff16815260200190815260200160002060009054906101000a900460ff161515145b80610cf957506000151560066000866020015173ffffffffffffffffffffffffffffffffffffffff1673ffffffffffffffffffffffffffffffffffffffff16815260200190815260200160002060009054906101000a900460ff161515145b80610d4a5750836040015160076000866000015173ffffffffffffffffffffffffffffffffffffffff1673ffffffffffffffffffffffffffffffffffffffff16815260200190815260200160002054105b15610d585760009150610da7565b600084604051602001610d6b9190612411565b604051602081830303815290604052805190602001209050610d9285600001518286610958565b15610da1576001925050610da7565b60009250505b5092915050565b60006003806005811115610dbe57fe5b6000809054906101000a900460ff166005811115610dd857fe5b14610e18576040517f08c379a0000000000000000000000000000000000000000000000000000000008152600401610e0f906123d1565b60405180910390fd5b60008090505b8451811015610e7a5760001515610e5b868381518110610e3a57fe5b6020026020010151868481518110610e4e57fe5b6020026020010151610ba5565b15151415610e6d576000925050610e80565b8080600101915050610e1e565b50600191505b5092915050565b600a60009054906101000a900473ffffffffffffffffffffffffffffffffffffffff1681565b600080151560026000856000015173ffffffffffffffffffffffffffffffffffffffff1673ffffffffffffffffffffffffffffffffffffffff16815260200190815260200160002060009054906101000a900460ff1615151415610f145760009050610f63565b600083604051602001610f27919061242c565b604051602081830303815290604052805190602001209050610f4e84600001518285610958565b15610f5d576001915050610f63565b60009150505b92915050565b60006003806005811115610f7957fe5b6000809054906101000a900460ff166005811115610f9357fe5b14610fd3576040517f08c379a0000000000000000000000000000000000000000000000000000000008152600401610fca906123d1565b60405180910390fd5b60008090505b84518110156110355760001515611016868381518110610ff557fe5b602002602001015186848151811061100957fe5b6020026020010151610ba5565b15151415611028576000925050611171565b8080600101915050610fd9565b5060008090505b84518110156111485784818151811061105157fe5b6020026020010151604001516007600087848151811061106d57fe5b60200260200101516000015173ffffffffffffffffffffffffffffffffffffffff1673ffffffffffffffffffffffffffffffffffffffff168152602001908152602001600020600082825403925050819055508481815181106110cc57fe5b602002602001015160400151600760008784815181106110e857fe5b60200260200101516020015173ffffffffffffffffffffffffffffffffffffffff1673ffffffffffffffffffffffffffffffffffffffff16815260200190815260200160002060008282540192505081905550808060010191505061103c565b5060026000806101000a81548160ff0219169083600581111561116757fe5b0217905550600191505b5092915050565b6000809054906101000a900460ff1681565b60066020528060005260406000206000915054906101000a900460ff1681565b60095481565b60045481565b600581815481106111c357fe5b906000526020600020016000915054906101000a900473ffffffffffffffffffffffffffffffffffffffff1681565b6000604051611200906115f3565b604051809103906000f08015801561121c573d6000803e3d6000fd5b5073ffffffffffffffffffffffffffffffffffffffff1663bf3c160b868686866040518563ffffffff1660e01b815260040161125b9493929190612317565b60206040518083038186803b15801561127357600080fd5b505afa158015611287573d6000803e3d6000fd5b505050506040513d601f19601f820116820180604052506112ab9190810190611e4e565b9050949350505050565b60076020528060005260406000206000915090505481565b60036020528060005260406000206000915090505481565b600060078351141580156112fb57506007825114155b156113095760009050611371565b60008090505b835181101561136b576000151561134c85838151811061132b57fe5b602002602001015185848151811061133f57fe5b6020026020010151610ead565b1515141561135e576000915050611371565b808060010191505061130f565b50600190505b92915050565b600080600581111561138557fe5b6000809054906101000a900460ff16600581111561139f57fe5b146113df576040517f08c379a00000000000000000000000000000000000000000000000000000000081526004016113d6906123d1565b60405180910390fd5b60013390806001815401808255809150509060018203906000526020600020016000909192909190916101000a81548173ffffffffffffffffffffffffffffffffffffffff021916908373ffffffffffffffffffffffffffffffffffffffff160217905550506001600260003373ffffffffffffffffffffffffffffffffffffffff1673ffffffffffffffffffffffffffffffffffffffff16815260200190815260200160002060006101000a81548160ff02191690831515021790555034600360003373ffffffffffffffffffffffffffffffffffffffff1673ffffffffffffffffffffffffffffffffffffffff1681526020019081526020016000206000828254019250508190555034600460008282540192505081905550600d60018054905014156115b457611510610a17565b60098190555060016009548154811061152557fe5b9060005260206000200160009054906101000a900473ffffffffffffffffffffffffffffffffffffffff16600a60006101000a81548173ffffffffffffffffffffffffffffffffffffffff021916908373ffffffffffffffffffffffffffffffffffffffff16021790555060016000806101000a81548160ff021916908360058111156115ae57fe5b02179055505b50565b600181815481106115c457fe5b906000526020600020016000915054906101000a900473ffffffffffffffffffffffffffffffffffffffff1681565b6106508061272e83390190565b60008135905061160f816126ba565b92915050565b600082601f83011261162657600080fd5b81356116396116348261248f565b612462565b9150818183526020840193506020810190508385602084028201111561165e57600080fd5b60005b8381101561168e57816116748882611927565b845260208401935060208301925050600181019050611661565b5050505092915050565b600082601f8301126116a957600080fd5b81356116bc6116b7826124b7565b612462565b915081818352602084019350602081019050838560208402820111156116e157600080fd5b60005b8381101561171157816116f78882611951565b8452602084019350602083019250506001810190506116e4565b5050505092915050565b600082601f83011261172c57600080fd5b813561173f61173a826124df565b612462565b9150818183526020840193506020810190508385606084028201111561176457600080fd5b60005b83811015611794578161177a8882611966565b845260208401935060608301925050600181019050611767565b5050505092915050565b600082601f8301126117af57600080fd5b81356117c26117bd82612507565b612462565b915081818352602084019350602081019050838560808402820111156117e757600080fd5b60005b8381101561181757816117fd8882611a26565b8452602084019350608083019250506001810190506117ea565b5050505092915050565b600082601f83011261183257600080fd5b81356118456118408261252f565b612462565b9150818183526020840193506020810190508385604084028201111561186a57600080fd5b60005b8381101561189a57816118808882611b0e565b84526020840193506040830192505060018101905061186d565b5050505092915050565b600082601f8301126118b557600080fd5b81356118c86118c382612557565b612462565b915081818352602084019350602081019050838560208402820111156118ed57600080fd5b60005b8381101561191d57816119038882611ba6565b8452602084019350602083019250506001810190506118f0565b5050505092915050565b600081359050611936816126d1565b92915050565b60008151905061194b816126d1565b92915050565b600081359050611960816126e8565b92915050565b60006060828403121561197857600080fd5b6119826060612462565b9050600061199284828501611bbb565b60008301525060206119a684828501611951565b60208301525060406119ba84828501611951565b60408301525092915050565b6000606082840312156119d857600080fd5b6119e26060612462565b905060006119f284828501611bbb565b6000830152506020611a0684828501611951565b6020830152506040611a1a84828501611951565b60408301525092915050565b600060808284031215611a3857600080fd5b611a426080612462565b90506000611a5284828501611600565b6000830152506020611a6684828501611600565b6020830152506040611a7a84828501611ba6565b6040830152506060611a8e84828501611ba6565b60608301525092915050565b600060808284031215611aac57600080fd5b611ab66080612462565b90506000611ac684828501611600565b6000830152506020611ada84828501611600565b6020830152506040611aee84828501611ba6565b6040830152506060611b0284828501611ba6565b60608301525092915050565b600060408284031215611b2057600080fd5b611b2a6040612462565b90506000611b3a84828501611600565b6000830152506020611b4e84828501611951565b60208301525092915050565b600060408284031215611b6c57600080fd5b611b766040612462565b90506000611b8684828501611600565b6000830152506020611b9a84828501611951565b60208301525092915050565b600081359050611bb5816126ff565b92915050565b600081359050611bca81612716565b92915050565b600060208284031215611be257600080fd5b6000611bf084828501611600565b91505092915050565b600080600060a08486031215611c0e57600080fd5b6000611c1c86828701611600565b9350506020611c2d86828701611951565b9250506040611c3e868287016119c6565b9150509250925092565b60008060408385031215611c5b57600080fd5b600083013567ffffffffffffffff811115611c7557600080fd5b611c818582860161179e565b925050602083013567ffffffffffffffff811115611c9e57600080fd5b611caa8582860161171b565b9150509250929050565b60008060408385031215611cc757600080fd5b600083013567ffffffffffffffff811115611ce157600080fd5b611ced85828601611821565b925050602083013567ffffffffffffffff811115611d0a57600080fd5b611d168582860161171b565b9150509250929050565b600080600080600080600060e0888a031215611d3b57600080fd5b600088013567ffffffffffffffff811115611d5557600080fd5b611d618a828b016118a4565b975050602088013567ffffffffffffffff811115611d7e57600080fd5b611d8a8a828b01611821565b965050604088013567ffffffffffffffff811115611da757600080fd5b611db38a828b0161171b565b9550506060611dc48a828b01611951565b945050608088013567ffffffffffffffff811115611de157600080fd5b611ded8a828b01611698565b93505060a088013567ffffffffffffffff811115611e0a57600080fd5b611e168a828b01611698565b92505060c088013567ffffffffffffffff811115611e3357600080fd5b611e3f8a828b01611615565b91505092959891949750929550565b600060208284031215611e6057600080fd5b6000611e6e8482850161193c565b91505092915050565b60008060008060808587031215611e8d57600080fd5b6000611e9b87828801611951565b945050602085013567ffffffffffffffff811115611eb857600080fd5b611ec487828801611698565b935050604085013567ffffffffffffffff811115611ee157600080fd5b611eed87828801611698565b925050606085013567ffffffffffffffff811115611f0a57600080fd5b611f1687828801611615565b91505092959194509250565b60008060e08385031215611f3557600080fd5b6000611f4385828601611a9a565b9250506080611f54858286016119c6565b9150509250929050565b60008060a08385031215611f7157600080fd5b6000611f7f85828601611b5a565b9250506040611f90858286016119c6565b9150509250929050565b600060208284031215611fac57600080fd5b6000611fba84828501611ba6565b91505092915050565b6000611fcf83836120cd565b60208301905092915050565b6000611fe783836120eb565b60208301905092915050565b611ffc8161261f565b82525050565b61200b8161260d565b82525050565b600061201c8261259f565b61202681856125cf565b93506120318361257f565b8060005b838110156120625781516120498882611fc3565b9750612054836125b5565b925050600181019050612035565b5085935050505092915050565b600061207a826125aa565b61208481856125e0565b935061208f8361258f565b8060005b838110156120c05781516120a78882611fdb565b97506120b2836125c2565b925050600181019050612093565b5085935050505092915050565b6120d681612631565b82525050565b6120e581612631565b82525050565b6120f48161263d565b82525050565b6121038161263d565b82525050565b61211a6121158261263d565b6126a3565b82525050565b61212981612691565b82525050565b600061213c601c83612602565b91507f19457468657265756d205369676e6564204d6573736167653a0a3332000000006000830152601c82019050919050565b600061217c600d836125f1565b91507f496e76616c6964207068617365000000000000000000000000000000000000006000830152602082019050919050565b60006121bc6018836125f1565b91507f496e76616c69642050617274696369706174652046756e6400000000000000006000830152602082019050919050565b6080820160008201516122056000850182612002565b5060208201516122186020850182612002565b50604082015161222b6040850182612273565b50606082015161223e6060850182612273565b50505050565b60408201600082015161225a6000850182612002565b50602082015161226d60208501826120eb565b50505050565b61227c8161267a565b82525050565b61228b8161267a565b82525050565b61229a81612684565b82525050565b60006122ab8261212f565b91506122b78284612109565b60208201915081905092915050565b60006020820190506122db6000830184611ff3565b92915050565b60006020820190506122f660008301846120dc565b92915050565b600060208201905061231160008301846120fa565b92915050565b600060808201905061232c60008301876120fa565b818103602083015261233e818661206f565b90508181036040830152612352818561206f565b905081810360608301526123668184612011565b905095945050505050565b600060808201905061238660008301876120fa565b6123936020830186612291565b6123a060408301856120fa565b6123ad60608301846120fa565b95945050505050565b60006020820190506123cb6000830184612120565b92915050565b600060208201905081810360008301526123ea8161216f565b9050919050565b6000602082019050818103600083015261240a816121af565b9050919050565b600060808201905061242660008301846121ef565b92915050565b60006040820190506124416000830184612244565b92915050565b600060208201905061245c6000830184612282565b92915050565b6000604051905081810181811067ffffffffffffffff8211171561248557600080fd5b8060405250919050565b600067ffffffffffffffff8211156124a657600080fd5b602082029050602081019050919050565b600067ffffffffffffffff8211156124ce57600080fd5b602082029050602081019050919050565b600067ffffffffffffffff8211156124f657600080fd5b602082029050602081019050919050565b600067ffffffffffffffff82111561251e57600080fd5b602082029050602081019050919050565b600067ffffffffffffffff82111561254657600080fd5b602082029050602081019050919050565b600067ffffffffffffffff82111561256e57600080fd5b602082029050602081019050919050565b6000819050602082019050919050565b6000819050602082019050919050565b600081519050919050565b600081519050919050565b6000602082019050919050565b6000602082019050919050565b600082825260208201905092915050565b600082825260208201905092915050565b600082825260208201905092915050565b600081905092915050565b60006126188261265a565b9050919050565b600061262a8261265a565b9050919050565b60008115159050919050565b6000819050919050565b6000819050612655826126ad565b919050565b600073ffffffffffffffffffffffffffffffffffffffff82169050919050565b6000819050919050565b600060ff82169050919050565b600061269c82612647565b9050919050565b6000819050919050565b600681106126b757fe5b50565b6126c38161260d565b81146126ce57600080fd5b50565b6126da81612631565b81146126e557600080fd5b50565b6126f18161263d565b81146126fc57600080fd5b50565b6127088161267a565b811461271357600080fd5b50565b61271f81612684565b811461272a57600080fd5b5056fe608060405234801561001057600080fd5b50610630806100206000396000f3fe608060405234801561001057600080fd5b50600436106100365760003560e01c80637e0492771461003b578063bf3c160b1461022f575b600080fd5b6102196004803603606081101561005157600080fd5b810190808035906020019064010000000081111561006e57600080fd5b82018360208201111561008057600080fd5b803590602001918460208302840111640100000000831117156100a257600080fd5b919080806020026020016040519081016040528093929190818152602001838360200280828437600081840152601f19601f8201169050808301925050505050505091929192908035906020019064010000000081111561010257600080fd5b82018360208201111561011457600080fd5b8035906020019184602083028401116401000000008311171561013657600080fd5b919080806020026020016040519081016040528093929190818152602001838360200280828437600081840152601f19601f8201169050808301925050505050505091929192908035906020019064010000000081111561019657600080fd5b8201836020820111156101a857600080fd5b803590602001918460208302840111640100000000831117156101ca57600080fd5b919080806020026020016040519081016040528093929190818152602001838360200280828437600081840152601f19601f820116905080830192505050505050509192919290505050610431565b6040518082815260200191505060405180910390f35b6104176004803603608081101561024557600080fd5b81019080803590602001909291908035906020019064010000000081111561026c57600080fd5b82018360208201111561027e57600080fd5b803590602001918460208302840111640100000000831117156102a057600080fd5b919080806020026020016040519081016040528093929190818152602001838360200280828437600081840152601f19601f8201169050808301925050505050505091929192908035906020019064010000000081111561030057600080fd5b82018360208201111561031257600080fd5b8035906020019184602083028401116401000000008311171561033457600080fd5b919080806020026020016040519081016040528093929190818152602001838360200280828437600081840152601f19601f8201169050808301925050505050505091929192908035906020019064010000000081111561039457600080fd5b8201836020820111156103a657600080fd5b803590602001918460208302840111640100000000831117156103c857600080fd5b919080806020026020016040519081016040528093929190818152602001838360200280828437600081840152601f19601f82011690508083019250505050505050919291929050505061059d565b604051808215151515815260200191505060405180910390f35b6000808451905060008351905060608160405190808252806020026020018201604052801561046f5781602001602082028038833980820191505090505b50905060008090506000809050600080905060008090505b858110156105765761055189828151811061049e57fe5b60200260200101516104c9578a83806001019450815181106104bc57fe5b602002602001015161050b565b8785106104ef578584806001019550815181106104e257fe5b602002602001015161050a565b8b858060010196508151811061050157fe5b60200260200101515b5b8886106105315786858060010196508151811061052457fe5b602002602001015161054c565b8c868060010197508151811061054357fe5b60200260200101515b6105b6565b85828151811061055d57fe5b6020026020010181815250508080600101915050610487565b5083600186038151811061058657fe5b602002602001015196505050505050509392505050565b6000846105ab858585610431565b149050949350505050565b60008183106105ce576105c982846105e1565b6105d9565b6105d883836105e1565b5b905092915050565b60008260005281602052604060002090508090509291505056fea265627a7a7231582009fecc190045c295c096183d106955258afcf929cd133acaf2b6303ac01ecba964736f6c63430005100032a365627a7a723158200e70693db956a7b6717fd4c71347ac3622836829b508d3b7d08e1365522ee6716c6578706572696d656e74616cf564736f6c63430005100040",
  "source": "// // SPDX-License-Identifier: MIT\npragma solidity >=0.5.16;\npragma experimental ABIEncoderV2;\n\nimport \"./ConvertLib.sol\";\nimport \"./MerkleMultiProof.sol\";\nimport \"./MerkleProof.sol\";\n\ncontract MetaCoin {\n\tenum Phase {\n\t\tOpen,Join,Update,Exchange,Close,Cancelled\n\t}\n\n    struct ECSignature {\n        uint8 v;\n        bytes32 r;\n        bytes32 s;\n    }\n\n\tstruct Payment {\n\t\taddress from;\n\t\taddress to;\n\t\tuint256 amounts;\n\t\tuint256 nonce;\n\t}\n\n\tstruct AccountBalances {\n\t\taddress account;\n\t\tuint256 balances;\n\t}\n\n\tstruct RootState {\n\t\taddress account;\n\t\tbytes32 root;\n\t}\n\n\tPhase public _phase;\n\n\taddress payable[] public _validators;\n\tmapping(address => bool) public _validatorsBook;\n\tmapping(address => uint256) public _collateralOfValidator;\n\tuint256 public _allCollateral;\n\n\taddress payable[] public _participates;\n\tmapping(address => bool) public _participatesBook;\n\tmapping(address => uint256) public _balancesOfParticipate;\n\tuint256 public _allBalances;\n\t\n\tuint256 public _leaderIndex;\n\taddress payable public _leader;\n\n\tmapping(uint256 => bool) public _usedNonces;\n\tbytes32 public _currentRoot;\n\n\tmodifier atPhase(Phase phase) {\n        require(_phase == phase, 'Invalid phase');\n        _;\n    }\n\n\tconstructor() public{\n\t\t_phase = Phase.Open;\n\n\t\t_allCollateral = 0;\n\t\t_leaderIndex = 0;\n\t\t_allBalances = 0;\n\t}\n\n\tfunction candidateFund() public payable atPhase(Phase.Open) {\n\t\t_validators.push(msg.sender);\n\t\t_validatorsBook[msg.sender] = true;\n\t\t_collateralOfValidator[msg.sender] += msg.value;\n\t\t_allCollateral += msg.value;\n\t\tif(_validators.length == 13){\n\t\t\t_leaderIndex = selectLeader();\n\t\t\t_leader = _validators[_leaderIndex];\n\n\t\t\t_phase = Phase.Join;\n\t\t}\n\t}\n\n\tfunction participatesFund() public payable atPhase(Phase.Join) {\n\t\trequire(msg.value <= _allCollateral, 'Invalid Participate Fund');\n\t\trequire(_allBalances < _allCollateral);\n\n\t\t_participates.push(msg.sender);\n\t\t_participatesBook[msg.sender] = true;\n\t\t_balancesOfParticipate[msg.sender] += msg.value;\n\t\t_allBalances += msg.value;\n\t\tif(_participates.length == 10){\n\t\t\t_phase = Phase.Exchange;\n\t\t}\n\t}\n\n    function checkPrefixedSig(address pk, bytes32 message, ECSignature memory sig)\n    public pure returns(bool) {\n        bytes32 prefixedHash = keccak256(abi.encodePacked(\"\\x19Ethereum Signed Message:\\n32\", message));\n\n        return ecrecover(prefixedHash, sig.v, sig.r, sig.s) == pk;\n    }\n\n\tfunction validRoot(RootState memory stateRoot, ECSignature memory sig)\n    public view returns(bool) {\n\t\tif( _validatorsBook[stateRoot.account] == false ) return false;\n\n        bytes32 message = keccak256(abi.encode(stateRoot));\n        if (checkPrefixedSig(stateRoot.account, message, sig)) {\n            return true;\n        }\n        return false;\n    }\n\n\tfunction validBatchOfRoot(RootState[] memory stateRootArr, ECSignature[] memory sigArr)\n    public view returns(bool) {\n\t\tif(stateRootArr.length != 7 && sigArr.length != 7) return false;\n\t\t\n\t\tfor(uint i = 0; i<stateRootArr.length; i++){\n\t\t\tif(validRoot(stateRootArr[i],sigArr[i]) == false) return false;\n\t\t}\n\t\treturn true;\n    }\n\n\tfunction updateState(uint[] memory balancesArr, RootState[] memory stateArr, ECSignature[] memory sigArr, bytes32 root , bytes32[] memory leafs, bytes32[] memory proofs, bool[] memory proofFlag) public returns(bool){\n\t\t//1 \n\t\t// if(!validMerkleRoot(root, leafs, proofs, proofFlag)) return false;\n\t\t//2 t\n\t\tif(!validBatchOfRoot(stateArr, sigArr)) return false;\n\t\t\n\t\t//3 \n\t\t_currentRoot = root;\n\t\tfor(uint i = 0; i < balancesArr.length; i++){\n\t\t\t_balancesOfParticipate[_participates[i]] = balancesArr[i];\n\t\t}\n\n\t\treturn true;\n\t}\n\n\tfunction validPayment(Payment memory payment, ECSignature memory sig)\n    public view atPhase(Phase.Exchange) returns(bool) {\n\t\tif(_usedNonces[payment.nonce] == true || \n\t\t\t_participatesBook[payment.from] == false ||\n\t\t \t_participatesBook[payment.to] == false ||\n\t\t \t_balancesOfParticipate[payment.from] < payment.amounts) {\n\t\t\treturn false;\n\t\t}\n\n        bytes32 message = keccak256(abi.encode(payment));\n        if (checkPrefixedSig(payment.from, message, sig)) {\n            return true;\n        }\n        return false;\n    }\n\n\tfunction validBatchOfPayment(Payment[] memory paymentArr, ECSignature[] memory sigArr)\n\tpublic view atPhase(Phase.Exchange) returns(bool) {\n\t\tfor(uint i = 0; i<paymentArr.length; i++){\n\t\t\tif(validPayment(paymentArr[i],sigArr[i]) == false){\n\t\t\t\treturn false;\n\t\t\t}\n\t\t}\n\t\treturn true;\n\t}\n\n\t// \n\tfunction updatePayment(Payment[] memory paymentArr, ECSignature[] memory sigArr)\n\tpublic atPhase(Phase.Exchange) returns(bool){\n\t\tfor(uint i = 0; i<paymentArr.length; i++){\n\t\t\tif(validPayment(paymentArr[i],sigArr[i]) == false){\n\t\t\t\treturn false;\n\t\t\t}\n\t\t}\n\n\t\tfor(uint i = 0; i<paymentArr.length; i++){\n\t\t\t_balancesOfParticipate[paymentArr[i].from] -= paymentArr[i].amounts;\n\t\t\t_balancesOfParticipate[paymentArr[i].to] += paymentArr[i].amounts;\n\t\t}\n\n\t\t_phase = Phase.Update;\n\t\treturn true;\n\t}\n\n\tfunction validMerkleRoot(bytes32 root, bytes32[] memory leafs, bytes32[] memory proofs, bool[] memory proofFlag)public returns(bool) {\n\t\treturn new MerkleMultiProof().verifyMultiProof(root, leafs, proofs, proofFlag);\n\t}\n\n\tfunction selectLeader() public view returns(uint256){\n\t\tif(_currentRoot == 0x0){\n\t\t\treturn 0;\n\t\t}\n\n\t\tuint256 allCollateral= 0;\n\t\tuint256[] memory tempVector = new uint256[](_validators.length);\n\t\tfor(uint i = 0; i < _validators.length; i++){\n\t\t\tallCollateral += _collateralOfValidator[_validators[i]];\n\t\t\ttempVector[i] = allCollateral;\n\t\t}\n\n\t\tuint256 random = uint256(keccak256(abi.encode(_currentRoot))) % allCollateral;\n\t\tfor(uint i = 0; i < tempVector.length; i++){\n\t\t\tif(random <= tempVector[i]){\n\t\t\t\treturn i;\n\t\t\t}\n\t\t}\n\t}\n\n}\n",
  "sourcePath": "/home/hrx/nodetest/MeteCoin/metacoin-box/contracts/MetaCoin.sol",
  "compiler": {
    "name": "solc",
    "version": "0.5.16+commit.9c3226ce.Emscripten.clang"
  },
  "schemaVersion": "3.4.3",
  "updatedAt": "2021-12-03T11:34:10.960Z",
  "devdoc": {
    "methods": {}
  },
  "userdoc": {
    "methods": {}
  }
}