{
  "contractName": "MetaCoin",
  "abi": [
    {
      "inputs": [],
      "payable": false,
      "stateMutability": "nonpayable",
      "type": "constructor"
    },
    {
      "constant": true,
      "inputs": [],
      "name": "_allBalances",
      "outputs": [
        {
          "internalType": "uint256",
          "name": "",
          "type": "uint256"
        }
      ],
      "payable": false,
      "stateMutability": "view",
      "type": "function"
    },
    {
      "constant": true,
      "inputs": [],
      "name": "_allCollateral",
      "outputs": [
        {
          "internalType": "uint256",
          "name": "",
          "type": "uint256"
        }
      ],
      "payable": false,
      "stateMutability": "view",
      "type": "function"
    },
    {
      "constant": true,
      "inputs": [
        {
          "internalType": "address",
          "name": "",
          "type": "address"
        }
      ],
      "name": "_balancesOfParticipate",
      "outputs": [
        {
          "internalType": "uint256",
          "name": "",
          "type": "uint256"
        }
      ],
      "payable": false,
      "stateMutability": "view",
      "type": "function"
    },
    {
      "constant": true,
      "inputs": [
        {
          "internalType": "address",
          "name": "",
          "type": "address"
        }
      ],
      "name": "_collateralOfValidator",
      "outputs": [
        {
          "internalType": "uint256",
          "name": "",
          "type": "uint256"
        }
      ],
      "payable": false,
      "stateMutability": "view",
      "type": "function"
    },
    {
      "constant": true,
      "inputs": [],
      "name": "_leader",
      "outputs": [
        {
          "internalType": "address payable",
          "name": "",
          "type": "address"
        }
      ],
      "payable": false,
      "stateMutability": "view",
      "type": "function"
    },
    {
      "constant": true,
      "inputs": [],
      "name": "_leaderIndex",
      "outputs": [
        {
          "internalType": "uint16",
          "name": "",
          "type": "uint16"
        }
      ],
      "payable": false,
      "stateMutability": "view",
      "type": "function"
    },
    {
      "constant": true,
      "inputs": [
        {
          "internalType": "uint256",
          "name": "",
          "type": "uint256"
        }
      ],
      "name": "_participates",
      "outputs": [
        {
          "internalType": "address payable",
          "name": "",
          "type": "address"
        }
      ],
      "payable": false,
      "stateMutability": "view",
      "type": "function"
    },
    {
      "constant": true,
      "inputs": [],
      "name": "_phase",
      "outputs": [
        {
          "internalType": "enum MetaCoin.Phase",
          "name": "",
          "type": "uint8"
        }
      ],
      "payable": false,
      "stateMutability": "view",
      "type": "function"
    },
    {
      "constant": true,
      "inputs": [
        {
          "internalType": "uint256",
          "name": "",
          "type": "uint256"
        }
      ],
      "name": "_validators",
      "outputs": [
        {
          "internalType": "address payable",
          "name": "",
          "type": "address"
        }
      ],
      "payable": false,
      "stateMutability": "view",
      "type": "function"
    },
    {
      "constant": false,
      "inputs": [],
      "name": "candidateFund",
      "outputs": [],
      "payable": true,
      "stateMutability": "payable",
      "type": "function"
    },
    {
      "constant": false,
      "inputs": [],
      "name": "participatesFund",
      "outputs": [],
      "payable": true,
      "stateMutability": "payable",
      "type": "function"
    }
  ],
  "bytecode": "0x608060405234801561001057600080fd5b5060008060006101000a81548160ff0219169083600581111561002f57fe5b021790555060006003819055506000600760006101000a81548161ffff021916908361ffff1602179055506000600681905550610974806100716000396000f3fe60806040526004361061009c5760003560e01c8063ab1f3e1711610064578063ab1f3e1714610199578063b1f105be146101c4578063da2bf2291461023f578063ddad7f1a146102a4578063e5935d8a14610309578063f90ecacc146103135761009c565b80633ad5139f146100a157806342a029e4146100ab57806365bfd612146100d6578063973010591461012d578063995162d914610166575b600080fd5b6100a961038e565b005b3480156100b757600080fd5b506100c0610602565b6040518082815260200191505060405180910390f35b3480156100e257600080fd5b506100eb610608565b604051808273ffffffffffffffffffffffffffffffffffffffff1673ffffffffffffffffffffffffffffffffffffffff16815260200191505060405180910390f35b34801561013957600080fd5b5061014261062e565b6040518082600581111561015257fe5b60ff16815260200191505060405180910390f35b34801561017257600080fd5b5061017b610640565b604051808261ffff1661ffff16815260200191505060405180910390f35b3480156101a557600080fd5b506101ae610654565b6040518082815260200191505060405180910390f35b3480156101d057600080fd5b506101fd600480360360208110156101e757600080fd5b810190808035906020019092919050505061065a565b604051808273ffffffffffffffffffffffffffffffffffffffff1673ffffffffffffffffffffffffffffffffffffffff16815260200191505060405180910390f35b34801561024b57600080fd5b5061028e6004803603602081101561026257600080fd5b81019080803573ffffffffffffffffffffffffffffffffffffffff169060200190929190505050610696565b6040518082815260200191505060405180910390f35b3480156102b057600080fd5b506102f3600480360360208110156102c757600080fd5b81019080803573ffffffffffffffffffffffffffffffffffffffff1690602001909291905050506106ae565b6040518082815260200191505060405180910390f35b6103116106c6565b005b34801561031f57600080fd5b5061034c6004803603602081101561033657600080fd5b8101908080359060200190929190505050610903565b604051808273ffffffffffffffffffffffffffffffffffffffff1673ffffffffffffffffffffffffffffffffffffffff16815260200191505060405180910390f35b600180600581111561039c57fe5b6000809054906101000a900460ff1660058111156103b657fe5b14610429576040517f08c379a000000000000000000000000000000000000000000000000000000000815260040180806020018281038252600d8152602001807f496e76616c69642070686173650000000000000000000000000000000000000081525060200191505060405180910390fd5b6003543411156104a1576040517f08c379a00000000000000000000000000000000000000000000000000000000081526004018080602001828103825260188152602001807f496e76616c69642050617274696369706174652046756e64000000000000000081525060200191505060405180910390fd5b34600660008282540192505081905550600354600654111561051957346006600082825403925050819055503373ffffffffffffffffffffffffffffffffffffffff166108fc349081150290604051600060405180830381858888f19350505050158015610513573d6000803e3d6000fd5b506105ff565b60043390806001815401808255809150509060018203906000526020600020016000909192909190916101000a81548173ffffffffffffffffffffffffffffffffffffffff021916908373ffffffffffffffffffffffffffffffffffffffff1602179055505034600560003373ffffffffffffffffffffffffffffffffffffffff1673ffffffffffffffffffffffffffffffffffffffff16815260200190815260200160002060008282540192505081905550600a60048054905014156105fe5760036000806101000a81548160ff021916908360058111156105f857fe5b02179055505b5b50565b60065481565b600760029054906101000a900473ffffffffffffffffffffffffffffffffffffffff1681565b6000809054906101000a900460ff1681565b600760009054906101000a900461ffff1681565b60035481565b6004818154811061066757fe5b906000526020600020016000915054906101000a900473ffffffffffffffffffffffffffffffffffffffff1681565b60056020528060005260406000206000915090505481565b60026020528060005260406000206000915090505481565b60008060058111156106d457fe5b6000809054906101000a900460ff1660058111156106ee57fe5b14610761576040517f08c379a000000000000000000000000000000000000000000000000000000000815260040180806020018281038252600d8152602001807f496e76616c69642070686173650000000000000000000000000000000000000081525060200191505060405180910390fd5b60013390806001815401808255809150509060018203906000526020600020016000909192909190916101000a81548173ffffffffffffffffffffffffffffffffffffffff021916908373ffffffffffffffffffffffffffffffffffffffff1602179055505034600260003373ffffffffffffffffffffffffffffffffffffffff1673ffffffffffffffffffffffffffffffffffffffff1681526020019081526020016000206000828254019250508190555034600360008282540192505081905550600d6001805490501415610900576000600760006101000a81548161ffff021916908361ffff1602179055506001600760009054906101000a900461ffff1661ffff168154811061087157fe5b9060005260206000200160009054906101000a900473ffffffffffffffffffffffffffffffffffffffff16600760026101000a81548173ffffffffffffffffffffffffffffffffffffffff021916908373ffffffffffffffffffffffffffffffffffffffff16021790555060016000806101000a81548160ff021916908360058111156108fa57fe5b02179055505b50565b6001818154811061091057fe5b906000526020600020016000915054906101000a900473ffffffffffffffffffffffffffffffffffffffff168156fea265627a7a72315820f5b3e365a1f640105be6b2e7bddbdf38027a245afd6a6d463e65667008ef6afc64736f6c63430005100032",
  "source": "// // SPDX-License-Identifier: MIT\n// pragma solidity >=0.4.25 <0.7.0;\n\n// import \"./ConvertLib.sol\";\n\n// // This is just a simple example of a coin-like contract.\n// // It is not standards compatible and cannot be expected to talk to other\n// // coin/token contracts. If you want to create a standards-compliant\n// // token, see: https://github.com/ConsenSys/Tokens. Cheers!\n\n// contract MetaCoin {\n// \tmapping (address => uint) balances;\n\n// \tevent Transfer(address indexed _from, address indexed _to, uint256 _value);\n\n// \tconstructor() public {\n// \t\tbalances[tx.origin] = 10000;\n// \t}\n\n// \tfunction sendCoin(address receiver, uint amount) public returns(bool sufficient) {\n// \t\tif (balances[msg.sender] < amount) return false;\n// \t\tbalances[msg.sender] -= amount;\n// \t\tbalances[receiver] += amount;\n// \t\temit Transfer(msg.sender, receiver, amount);\n// \t\treturn true;\n// \t}\n\n// \tfunction getBalanceInEth(address addr) public view returns(uint){\n// \t\treturn ConvertLib.convert(getBalance(addr),2);\n// \t}\n\n// \tfunction getBalance(address addr) public view returns(uint) {\n// \t\treturn balances[addr];\n// \t}\n// }\n\npragma solidity >=0.5.16;\n// pragma experimental ABIEncoderV2;\n\nimport \"./ConvertLib.sol\";\n\ncontract MetaCoin {\n\tenum Phase {\n\t\tOpen,Join,Update,Exchange,Close,Cancelled\n\t}\n\n\tPhase public _phase;\n\n\taddress payable[] public _validators;\n\tmapping(address => uint256) public _collateralOfValidator;\n\tuint256 public _allCollateral;\n\n\taddress payable[] public _participates;\n\tmapping(address => uint256) public _balancesOfParticipate;\n\tuint256 public _allBalances;\n\t\n\tuint16 public _leaderIndex;\n\taddress payable public _leader;\n\n\n\tmodifier atPhase(Phase phase) {\n        require(_phase == phase, 'Invalid phase');\n        _;\n    }\n\n\tconstructor() public{\n\t\t_phase = Phase.Open;\n\n\t\t_allCollateral = 0;\n\t\t_leaderIndex = 0;\n\t\t_allBalances = 0;\n\t}\n\n\tfunction candidateFund() public payable atPhase(Phase.Open) {\n\t\t_validators.push(msg.sender);\n\t\t_collateralOfValidator[msg.sender] += msg.value;\n\t\t_allCollateral += msg.value;\n\t\tif(_validators.length == 13){\n\t\t\t//TODO1 select a leader\n\t\t\t_leaderIndex = 0;\n\t\t\t_leader = _validators[_leaderIndex];\n\n\t\t\t_phase = Phase.Join;\n\t\t}\n\t}\n\n\tfunction participatesFund() public payable atPhase(Phase.Join) {\n\t\trequire(msg.value <= _allCollateral, 'Invalid Participate Fund');\n\n\t\t_allBalances += msg.value;\n\t\tif(_allBalances > _allCollateral){\n\t\t\t_allBalances -= msg.value;\n\t\t\tmsg.sender.transfer(msg.value);\n\t\t} else{\n\t\t\t_participates.push(msg.sender);\n\t\t\t_balancesOfParticipate[msg.sender] += msg.value;\n\n\t\t\tif(_participates.length == 10){\n\t\t\t\t_phase = Phase.Exchange;\n\t\t\t}\n\t\t}\n\t\n\t}\n}\n",
  "sourcePath": "/home/hrx/nodetest/MeteCoin/metacoin-box/contracts/MetaCoin.sol",
  "compiler": {
    "name": "solc",
    "version": "0.5.16+commit.9c3226ce.Emscripten.clang"
  },
  "schemaVersion": "3.4.3",
  "updatedAt": "2021-11-22T13:38:04.497Z",
  "networkType": "ethereum",
  "devdoc": {
    "methods": {}
  },
  "userdoc": {
    "methods": {}
  }
}