{
  "contractName": "MetaCoin",
  "abi": [
    {
      "inputs": [],
      "stateMutability": "nonpayable",
      "type": "constructor"
    },
    {
      "inputs": [],
      "name": "_T",
      "outputs": [
        {
          "internalType": "uint256",
          "name": "",
          "type": "uint256"
        }
      ],
      "stateMutability": "view",
      "type": "function"
    },
    {
      "inputs": [],
      "name": "_allBalances",
      "outputs": [
        {
          "internalType": "uint256",
          "name": "",
          "type": "uint256"
        }
      ],
      "stateMutability": "view",
      "type": "function"
    },
    {
      "inputs": [],
      "name": "_allCollateral",
      "outputs": [
        {
          "internalType": "uint256",
          "name": "",
          "type": "uint256"
        }
      ],
      "stateMutability": "view",
      "type": "function"
    },
    {
      "inputs": [
        {
          "internalType": "address",
          "name": "",
          "type": "address"
        }
      ],
      "name": "_balancesOfParticipate",
      "outputs": [
        {
          "internalType": "uint256",
          "name": "",
          "type": "uint256"
        }
      ],
      "stateMutability": "view",
      "type": "function"
    },
    {
      "inputs": [
        {
          "internalType": "address",
          "name": "",
          "type": "address"
        }
      ],
      "name": "_collateralOfValidator",
      "outputs": [
        {
          "internalType": "uint256",
          "name": "",
          "type": "uint256"
        }
      ],
      "stateMutability": "view",
      "type": "function"
    },
    {
      "inputs": [],
      "name": "_currentPaymentRoot",
      "outputs": [
        {
          "internalType": "bytes32",
          "name": "",
          "type": "bytes32"
        }
      ],
      "stateMutability": "view",
      "type": "function"
    },
    {
      "inputs": [],
      "name": "_currentRoot",
      "outputs": [
        {
          "internalType": "bytes32",
          "name": "",
          "type": "bytes32"
        }
      ],
      "stateMutability": "view",
      "type": "function"
    },
    {
      "inputs": [],
      "name": "_duration",
      "outputs": [
        {
          "internalType": "uint256",
          "name": "",
          "type": "uint256"
        }
      ],
      "stateMutability": "view",
      "type": "function"
    },
    {
      "inputs": [],
      "name": "_expiration",
      "outputs": [
        {
          "internalType": "uint256",
          "name": "",
          "type": "uint256"
        }
      ],
      "stateMutability": "view",
      "type": "function"
    },
    {
      "inputs": [
        {
          "internalType": "address",
          "name": "",
          "type": "address"
        }
      ],
      "name": "_feeOfValidator",
      "outputs": [
        {
          "internalType": "uint256",
          "name": "",
          "type": "uint256"
        }
      ],
      "stateMutability": "view",
      "type": "function"
    },
    {
      "inputs": [],
      "name": "_leader",
      "outputs": [
        {
          "internalType": "address payable",
          "name": "",
          "type": "address"
        }
      ],
      "stateMutability": "view",
      "type": "function"
    },
    {
      "inputs": [],
      "name": "_leaderIndex",
      "outputs": [
        {
          "internalType": "uint256",
          "name": "",
          "type": "uint256"
        }
      ],
      "stateMutability": "view",
      "type": "function"
    },
    {
      "inputs": [
        {
          "internalType": "uint256",
          "name": "",
          "type": "uint256"
        }
      ],
      "name": "_participates",
      "outputs": [
        {
          "internalType": "address payable",
          "name": "",
          "type": "address"
        }
      ],
      "stateMutability": "view",
      "type": "function"
    },
    {
      "inputs": [
        {
          "internalType": "address",
          "name": "",
          "type": "address"
        }
      ],
      "name": "_participatesBook",
      "outputs": [
        {
          "internalType": "bool",
          "name": "",
          "type": "bool"
        }
      ],
      "stateMutability": "view",
      "type": "function"
    },
    {
      "inputs": [],
      "name": "_phase",
      "outputs": [
        {
          "internalType": "enum MetaCoin.Phase",
          "name": "",
          "type": "uint8"
        }
      ],
      "stateMutability": "view",
      "type": "function"
    },
    {
      "inputs": [],
      "name": "_rejectBook",
      "outputs": [
        {
          "internalType": "uint256",
          "name": "",
          "type": "uint256"
        }
      ],
      "stateMutability": "view",
      "type": "function"
    },
    {
      "inputs": [
        {
          "internalType": "uint256",
          "name": "",
          "type": "uint256"
        }
      ],
      "name": "_usedNonces",
      "outputs": [
        {
          "internalType": "bool",
          "name": "",
          "type": "bool"
        }
      ],
      "stateMutability": "view",
      "type": "function"
    },
    {
      "inputs": [
        {
          "internalType": "uint256",
          "name": "",
          "type": "uint256"
        }
      ],
      "name": "_validators",
      "outputs": [
        {
          "internalType": "address payable",
          "name": "",
          "type": "address"
        }
      ],
      "stateMutability": "view",
      "type": "function"
    },
    {
      "inputs": [
        {
          "internalType": "address",
          "name": "",
          "type": "address"
        }
      ],
      "name": "_validatorsBook",
      "outputs": [
        {
          "internalType": "bool",
          "name": "",
          "type": "bool"
        }
      ],
      "stateMutability": "view",
      "type": "function"
    },
    {
      "inputs": [],
      "name": "candidateFund",
      "outputs": [],
      "stateMutability": "payable",
      "type": "function"
    },
    {
      "inputs": [],
      "name": "participatesFund",
      "outputs": [],
      "stateMutability": "payable",
      "type": "function"
    },
    {
      "inputs": [
        {
          "internalType": "address",
          "name": "pk",
          "type": "address"
        },
        {
          "internalType": "bytes32",
          "name": "message",
          "type": "bytes32"
        },
        {
          "components": [
            {
              "internalType": "uint8",
              "name": "v",
              "type": "uint8"
            },
            {
              "internalType": "bytes32",
              "name": "r",
              "type": "bytes32"
            },
            {
              "internalType": "bytes32",
              "name": "s",
              "type": "bytes32"
            }
          ],
          "internalType": "struct MetaCoin.ECSignature",
          "name": "sig",
          "type": "tuple"
        }
      ],
      "name": "checkPrefixedSig",
      "outputs": [
        {
          "internalType": "bool",
          "name": "",
          "type": "bool"
        }
      ],
      "stateMutability": "pure",
      "type": "function"
    },
    {
      "inputs": [
        {
          "internalType": "bytes32",
          "name": "paymentRoot",
          "type": "bytes32"
        },
        {
          "components": [
            {
              "internalType": "address",
              "name": "account",
              "type": "address"
            },
            {
              "components": [
                {
                  "internalType": "uint8",
                  "name": "v",
                  "type": "uint8"
                },
                {
                  "internalType": "bytes32",
                  "name": "r",
                  "type": "bytes32"
                },
                {
                  "internalType": "bytes32",
                  "name": "s",
                  "type": "bytes32"
                }
              ],
              "internalType": "struct MetaCoin.ECSignature",
              "name": "sig",
              "type": "tuple"
            }
          ],
          "internalType": "struct MetaCoin.SigOfAccount",
          "name": "sigOfaccount",
          "type": "tuple"
        }
      ],
      "name": "validRoot",
      "outputs": [
        {
          "internalType": "bool",
          "name": "",
          "type": "bool"
        }
      ],
      "stateMutability": "view",
      "type": "function"
    },
    {
      "inputs": [
        {
          "internalType": "uint256[]",
          "name": "balancesArr",
          "type": "uint256[]"
        },
        {
          "internalType": "bytes32[]",
          "name": "leaves",
          "type": "bytes32[]"
        },
        {
          "components": [
            {
              "internalType": "bytes32",
              "name": "stateRoot",
              "type": "bytes32"
            },
            {
              "internalType": "bytes32",
              "name": "paymentRoot",
              "type": "bytes32"
            },
            {
              "internalType": "uint256",
              "name": "stateHeight",
              "type": "uint256"
            },
            {
              "internalType": "uint256",
              "name": "totalFee",
              "type": "uint256"
            }
          ],
          "internalType": "struct MetaCoin.SnapShot",
          "name": "snapshot",
          "type": "tuple"
        },
        {
          "components": [
            {
              "internalType": "address",
              "name": "account",
              "type": "address"
            },
            {
              "components": [
                {
                  "internalType": "uint8",
                  "name": "v",
                  "type": "uint8"
                },
                {
                  "internalType": "bytes32",
                  "name": "r",
                  "type": "bytes32"
                },
                {
                  "internalType": "bytes32",
                  "name": "s",
                  "type": "bytes32"
                }
              ],
              "internalType": "struct MetaCoin.ECSignature",
              "name": "sig",
              "type": "tuple"
            }
          ],
          "internalType": "struct MetaCoin.SigOfAccount[]",
          "name": "sigOfAccount",
          "type": "tuple[]"
        }
      ],
      "name": "updateState",
      "outputs": [
        {
          "internalType": "bool",
          "name": "",
          "type": "bool"
        }
      ],
      "stateMutability": "nonpayable",
      "type": "function"
    },
    {
      "inputs": [
        {
          "components": [
            {
              "internalType": "bytes32",
              "name": "stateRoot",
              "type": "bytes32"
            },
            {
              "internalType": "bytes32",
              "name": "paymentRoot",
              "type": "bytes32"
            },
            {
              "internalType": "uint256",
              "name": "stateHeight",
              "type": "uint256"
            },
            {
              "internalType": "uint256",
              "name": "totalFee",
              "type": "uint256"
            }
          ],
          "internalType": "struct MetaCoin.SnapShot",
          "name": "snapshot",
          "type": "tuple"
        },
        {
          "components": [
            {
              "internalType": "address",
              "name": "account",
              "type": "address"
            },
            {
              "components": [
                {
                  "internalType": "uint8",
                  "name": "v",
                  "type": "uint8"
                },
                {
                  "internalType": "bytes32",
                  "name": "r",
                  "type": "bytes32"
                },
                {
                  "internalType": "bytes32",
                  "name": "s",
                  "type": "bytes32"
                }
              ],
              "internalType": "struct MetaCoin.ECSignature",
              "name": "sig",
              "type": "tuple"
            }
          ],
          "internalType": "struct MetaCoin.SigOfAccount",
          "name": "sigOfAccount",
          "type": "tuple"
        }
      ],
      "name": "validSnapShot",
      "outputs": [
        {
          "internalType": "bool",
          "name": "",
          "type": "bool"
        }
      ],
      "stateMutability": "pure",
      "type": "function"
    },
    {
      "inputs": [
        {
          "components": [
            {
              "internalType": "bytes32",
              "name": "stateRoot",
              "type": "bytes32"
            },
            {
              "internalType": "bytes32",
              "name": "paymentRoot",
              "type": "bytes32"
            },
            {
              "internalType": "uint256",
              "name": "stateHeight",
              "type": "uint256"
            },
            {
              "internalType": "uint256",
              "name": "totalFee",
              "type": "uint256"
            }
          ],
          "internalType": "struct MetaCoin.SnapShot",
          "name": "snapshot",
          "type": "tuple"
        },
        {
          "components": [
            {
              "internalType": "address",
              "name": "account",
              "type": "address"
            },
            {
              "components": [
                {
                  "internalType": "uint8",
                  "name": "v",
                  "type": "uint8"
                },
                {
                  "internalType": "bytes32",
                  "name": "r",
                  "type": "bytes32"
                },
                {
                  "internalType": "bytes32",
                  "name": "s",
                  "type": "bytes32"
                }
              ],
              "internalType": "struct MetaCoin.ECSignature",
              "name": "sig",
              "type": "tuple"
            }
          ],
          "internalType": "struct MetaCoin.SigOfAccount[]",
          "name": "sigOfAccount",
          "type": "tuple[]"
        }
      ],
      "name": "validBatchOfSnapShot",
      "outputs": [
        {
          "internalType": "bool",
          "name": "",
          "type": "bool"
        }
      ],
      "stateMutability": "pure",
      "type": "function"
    },
    {
      "inputs": [
        {
          "components": [
            {
              "internalType": "address",
              "name": "from",
              "type": "address"
            },
            {
              "internalType": "address",
              "name": "to",
              "type": "address"
            },
            {
              "internalType": "uint256",
              "name": "amounts",
              "type": "uint256"
            },
            {
              "internalType": "uint256",
              "name": "nonce",
              "type": "uint256"
            }
          ],
          "internalType": "struct MetaCoin.Payment",
          "name": "payment",
          "type": "tuple"
        },
        {
          "components": [
            {
              "internalType": "uint8",
              "name": "v",
              "type": "uint8"
            },
            {
              "internalType": "bytes32",
              "name": "r",
              "type": "bytes32"
            },
            {
              "internalType": "bytes32",
              "name": "s",
              "type": "bytes32"
            }
          ],
          "internalType": "struct MetaCoin.ECSignature",
          "name": "sig",
          "type": "tuple"
        }
      ],
      "name": "validPayment",
      "outputs": [
        {
          "internalType": "bool",
          "name": "",
          "type": "bool"
        }
      ],
      "stateMutability": "view",
      "type": "function"
    },
    {
      "inputs": [],
      "name": "selectLeader",
      "outputs": [
        {
          "internalType": "uint256",
          "name": "leaderIndex",
          "type": "uint256"
        }
      ],
      "stateMutability": "nonpayable",
      "type": "function"
    },
    {
      "inputs": [
        {
          "internalType": "bytes32",
          "name": "root",
          "type": "bytes32"
        },
        {
          "internalType": "bytes32",
          "name": "leaf",
          "type": "bytes32"
        },
        {
          "internalType": "bytes32[]",
          "name": "proof",
          "type": "bytes32[]"
        }
      ],
      "name": "verify",
      "outputs": [
        {
          "internalType": "bool",
          "name": "",
          "type": "bool"
        }
      ],
      "stateMutability": "nonpayable",
      "type": "function"
    },
    {
      "inputs": [
        {
          "internalType": "bytes32[]",
          "name": "tempHashes",
          "type": "bytes32[]"
        },
        {
          "internalType": "bytes32",
          "name": "root",
          "type": "bytes32"
        }
      ],
      "name": "isGeneratedRoot",
      "outputs": [
        {
          "internalType": "bool",
          "name": "",
          "type": "bool"
        }
      ],
      "stateMutability": "nonpayable",
      "type": "function"
    },
    {
      "inputs": [
        {
          "internalType": "bytes32",
          "name": "root",
          "type": "bytes32"
        },
        {
          "internalType": "bytes32[]",
          "name": "proof",
          "type": "bytes32[]"
        },
        {
          "components": [
            {
              "internalType": "uint8",
              "name": "v",
              "type": "uint8"
            },
            {
              "internalType": "bytes32",
              "name": "r",
              "type": "bytes32"
            },
            {
              "internalType": "bytes32",
              "name": "s",
              "type": "bytes32"
            }
          ],
          "internalType": "struct MetaCoin.ECSignature",
          "name": "rootSig",
          "type": "tuple"
        },
        {
          "components": [
            {
              "internalType": "address",
              "name": "from",
              "type": "address"
            },
            {
              "internalType": "address",
              "name": "to",
              "type": "address"
            },
            {
              "internalType": "uint256",
              "name": "amounts",
              "type": "uint256"
            },
            {
              "internalType": "uint256",
              "name": "nonce",
              "type": "uint256"
            },
            {
              "internalType": "uint8",
              "name": "v",
              "type": "uint8"
            },
            {
              "internalType": "bytes32",
              "name": "r",
              "type": "bytes32"
            },
            {
              "internalType": "bytes32",
              "name": "s",
              "type": "bytes32"
            }
          ],
          "internalType": "struct MetaCoin.PaymentSig",
          "name": "paymentSig",
          "type": "tuple"
        }
      ],
      "name": "TxFraudProof",
      "outputs": [
        {
          "internalType": "bool",
          "name": "",
          "type": "bool"
        }
      ],
      "stateMutability": "nonpayable",
      "type": "function"
    },
    {
      "inputs": [
        {
          "internalType": "uint256",
          "name": "id",
          "type": "uint256"
        }
      ],
      "name": "writeRejectBook",
      "outputs": [
        {
          "internalType": "bool",
          "name": "",
          "type": "bool"
        }
      ],
      "stateMutability": "nonpayable",
      "type": "function"
    },
    {
      "inputs": [
        {
          "internalType": "uint256",
          "name": "id",
          "type": "uint256"
        }
      ],
      "name": "readRejectBook",
      "outputs": [
        {
          "internalType": "uint256",
          "name": "",
          "type": "uint256"
        }
      ],
      "stateMutability": "view",
      "type": "function"
    },
    {
      "inputs": [],
      "name": "countRejectBook",
      "outputs": [
        {
          "internalType": "uint256",
          "name": "",
          "type": "uint256"
        }
      ],
      "stateMutability": "view",
      "type": "function"
    },
    {
      "inputs": [
        {
          "components": [
            {
              "internalType": "bytes32",
              "name": "stateRoot",
              "type": "bytes32"
            },
            {
              "internalType": "bytes32",
              "name": "paymentRoot",
              "type": "bytes32"
            },
            {
              "internalType": "uint256",
              "name": "stateHeight",
              "type": "uint256"
            },
            {
              "internalType": "uint256",
              "name": "totalFee",
              "type": "uint256"
            }
          ],
          "internalType": "struct MetaCoin.SnapShot",
          "name": "snapshot",
          "type": "tuple"
        },
        {
          "components": [
            {
              "internalType": "address",
              "name": "account",
              "type": "address"
            },
            {
              "components": [
                {
                  "internalType": "uint8",
                  "name": "v",
                  "type": "uint8"
                },
                {
                  "internalType": "bytes32",
                  "name": "r",
                  "type": "bytes32"
                },
                {
                  "internalType": "bytes32",
                  "name": "s",
                  "type": "bytes32"
                }
              ],
              "internalType": "struct MetaCoin.ECSignature",
              "name": "sig",
              "type": "tuple"
            }
          ],
          "internalType": "struct MetaCoin.SigOfAccount[]",
          "name": "sigOfAccount",
          "type": "tuple[]"
        }
      ],
      "name": "punishErrorVoter",
      "outputs": [],
      "stateMutability": "nonpayable",
      "type": "function"
    },
    {
      "inputs": [],
      "name": "triggerSelectLeader",
      "outputs": [],
      "stateMutability": "nonpayable",
      "type": "function"
    }
  ],
  "bytecode": "0x60806040523480156200001157600080fd5b5060008060006101000a81548160ff021916908360058111156200003a576200003962000056565b5b02179055506007601081905550610e1060128190555062000085565b7f4e487b7100000000000000000000000000000000000000000000000000000000600052602160045260246000fd5b613d9e80620000956000396000f3fe60806040526004361061020d5760003560e01c806365bfd61211610118578063b1f105be116100a0578063ddad7f1a1161006f578063ddad7f1a14610830578063dee4824f1461086d578063e5935d8a146108aa578063e7760463146108b4578063f90ecacc146108df5761020d565b8063b1f105be1461074e578063b7a336791461078b578063cf128928146107c8578063da2bf229146107f35761020d565b8063914855a4116100e7578063914855a4146106535780639730105914610690578063977548da146106bb578063995162d9146106f8578063ab1f3e17146107235761020d565b806365bfd612146105835780636908d891146105ae578063778099f7146105eb5780638aadf4aa146106285761020d565b80632dea5b0d1161019b5780633ad5139f1161016a5780633ad5139f146104a957806342a029e4146104b35780634e91b43d146104de57806356c0ec1e1461051b578063579b9757146105465761020d565b80632dea5b0d146103c75780632f442aa8146104045780633423e5481461042f5780633ab6bb7b1461046c5761020d565b806310eeebc4116101e257806310eeebc4146102bc5780631a822adf146102e5578063245c7c601461032257806328fd5d481461034d5780632964225f1461038a5761020d565b806265917b14610212578062c733451461023d5780630334acfe1461025457806307396b911461027f575b600080fd5b34801561021e57600080fd5b5061022761091c565b6040516102349190612b1f565b60405180910390f35b34801561024957600080fd5b50610252610922565b005b34801561026057600080fd5b50610269610aa7565b6040516102769190612b53565b60405180910390f35b34801561028b57600080fd5b506102a660048036038101906102a19190612be0565b610aad565b6040516102b39190612c28565b60405180910390f35b3480156102c857600080fd5b506102e360048036038101906102de9190612ccc565b610acd565b005b3480156102f157600080fd5b5061030c60048036038101906103079190612d58565b6112d7565b6040516103199190612c28565b60405180910390f35b34801561032e57600080fd5b506103376113ff565b6040516103449190612b1f565b60405180910390f35b34801561035957600080fd5b50610374600480360381019061036f9190612ccc565b611405565b6040516103819190612c28565b60405180910390f35b34801561039657600080fd5b506103b160048036038101906103ac9190612d58565b611470565b6040516103be9190612c28565b60405180910390f35b3480156103d357600080fd5b506103ee60048036038101906103e99190612be0565b611490565b6040516103fb9190612b1f565b60405180910390f35b34801561041057600080fd5b506104196114a8565b6040516104269190612b1f565b60405180910390f35b34801561043b57600080fd5b5061045660048036038101906104519190612e07565b6114ae565b6040516104639190612c28565b60405180910390f35b34801561047857600080fd5b50610493600480360381019061048e9190612fca565b611566565b6040516104a09190612c28565b60405180910390f35b6104b16117b6565b005b3480156104bf57600080fd5b506104c86119fa565b6040516104d59190612b1f565b60405180910390f35b3480156104ea57600080fd5b50610505600480360381019061050091906130c8565b611a00565b6040516105129190612c28565b60405180910390f35b34801561052757600080fd5b50610530611abf565b60405161053d9190612b1f565b60405180910390f35b34801561055257600080fd5b5061056d60048036038101906105689190613193565b611cbb565b60405161057a9190612c28565b60405180910390f35b34801561058f57600080fd5b50610598611e5b565b6040516105a591906131f4565b60405180910390f35b3480156105ba57600080fd5b506105d560048036038101906105d0919061325f565b611e81565b6040516105e29190612c28565b60405180910390f35b3480156105f757600080fd5b50610612600480360381019061060d91906132dd565b611f41565b60405161061f9190612c28565b60405180910390f35b34801561063457600080fd5b5061063d612442565b60405161064a9190612b1f565b60405180910390f35b34801561065f57600080fd5b5061067a60048036038101906106759190613385565b612481565b6040516106879190612c28565b60405180910390f35b34801561069c57600080fd5b506106a56124f8565b6040516106b2919061343d565b60405180910390f35b3480156106c757600080fd5b506106e260048036038101906106dd9190612be0565b612509565b6040516106ef9190612c28565b60405180910390f35b34801561070457600080fd5b5061070d612529565b60405161071a9190612b1f565b60405180910390f35b34801561072f57600080fd5b5061073861252f565b6040516107459190612b1f565b60405180910390f35b34801561075a57600080fd5b5061077560048036038101906107709190612d58565b612535565b60405161078291906131f4565b60405180910390f35b34801561079757600080fd5b506107b260048036038101906107ad9190612d58565b612574565b6040516107bf9190612b1f565b60405180910390f35b3480156107d457600080fd5b506107dd612586565b6040516107ea9190612b1f565b60405180910390f35b3480156107ff57600080fd5b5061081a60048036038101906108159190612be0565b61258c565b6040516108279190612b1f565b60405180910390f35b34801561083c57600080fd5b5061085760048036038101906108529190612be0565b6125a4565b6040516108649190612b1f565b60405180910390f35b34801561087957600080fd5b50610894600480360381019061088f91906134ae565b6125bc565b6040516108a19190612c28565b60405180910390f35b6108b261285e565b005b3480156108c057600080fd5b506108c9612ac1565b6040516108d69190612b53565b60405180910390f35b3480156108eb57600080fd5b5061090660048036038101906109019190612d58565b612ac7565b60405161091391906131f4565b60405180910390f35b60115481565b60011515600260003373ffffffffffffffffffffffffffffffffffffffff1673ffffffffffffffffffffffffffffffffffffffff16815260200190815260200160002060009054906101000a900460ff161515146109b5576040517f08c379a00000000000000000000000000000000000000000000000000000000081526004016109ac906135ce565b60405180910390fd5b6011544210156109fa576040517f08c379a00000000000000000000000000000000000000000000000000000000081526004016109f19061363a565b60405180910390fd5b6000600f8190555060125442610a109190613689565b601181905550610a1e611abf565b600a819055506001600a5481548110610a3a57610a396136df565b5b9060005260206000200160009054906101000a900473ffffffffffffffffffffffffffffffffffffffff16600b60006101000a81548173ffffffffffffffffffffffffffffffffffffffff021916908373ffffffffffffffffffffffffffffffffffffffff160217905550565b600d5481565b60026020528060005260406000206000915054906101000a900460ff1681565b60011515600260003373ffffffffffffffffffffffffffffffffffffffff1673ffffffffffffffffffffffffffffffffffffffff16815260200190815260200160002060009054906101000a900460ff16151514610b60576040517f08c379a0000000000000000000000000000000000000000000000000000000008152600401610b57906135ce565b60405180910390fd5b601054610b6b612442565b1015610b7657600080fd5b600060036000600b60009054906101000a900473ffffffffffffffffffffffffffffffffffffffff1673ffffffffffffffffffffffffffffffffffffffff1673ffffffffffffffffffffffffffffffffffffffff168152602001908152602001600020549050600060046000600b60009054906101000a900473ffffffffffffffffffffffffffffffffffffffff1673ffffffffffffffffffffffffffffffffffffffff1673ffffffffffffffffffffffffffffffffffffffff168152602001908152602001600020549050600060036000600b60009054906101000a900473ffffffffffffffffffffffffffffffffffffffff1673ffffffffffffffffffffffffffffffffffffffff1673ffffffffffffffffffffffffffffffffffffffff16815260200190815260200160002081905550600060046000600b60009054906101000a900473ffffffffffffffffffffffffffffffffffffffff1673ffffffffffffffffffffffffffffffffffffffff1673ffffffffffffffffffffffffffffffffffffffff1681526020019081526020016000208190555060008086604051602001610d2491906137cf565b60405160208183030381529060405280519060200120604051602001610d4a9190613862565b60405160208183030381529060405280519060200120905060005b86869050811015610fc257868682818110610d8357610d826136df565b5b9050608002016000016020810190610d9b9190612be0565b92508273ffffffffffffffffffffffffffffffffffffffff16600183898985818110610dca57610dc96136df565b5b9050608002016020016000016020810190610de59190613888565b8a8a86818110610df857610df76136df565b5b905060800201602001602001358b8b87818110610e1857610e176136df565b5b9050608002016020016040013560405160008152602001604052604051610e4294939291906138c4565b6020604051602081039080840390855afa158015610e64573d6000803e3d6000fd5b5050506020604051035173ffffffffffffffffffffffffffffffffffffffff161415610faf57600360008473ffffffffffffffffffffffffffffffffffffffff1673ffffffffffffffffffffffffffffffffffffffff1681526020019081526020016000205485610ed59190613689565b9450600460008473ffffffffffffffffffffffffffffffffffffffff1673ffffffffffffffffffffffffffffffffffffffff1681526020019081526020016000205484610f229190613689565b93506000600360008573ffffffffffffffffffffffffffffffffffffffff1673ffffffffffffffffffffffffffffffffffffffff168152602001908152602001600020819055506000600460008573ffffffffffffffffffffffffffffffffffffffff1673ffffffffffffffffffffffffffffffffffffffff168152602001908152602001600020819055505b8080610fba90613909565b915050610d65565b50600060105485610fd39190613981565b9050600060105485610fe59190613981565b905060005b60018054905081101561114457600161100282612574565b141561113157826003600060018481548110611021576110206136df565b5b9060005260206000200160009054906101000a900473ffffffffffffffffffffffffffffffffffffffff1673ffffffffffffffffffffffffffffffffffffffff1673ffffffffffffffffffffffffffffffffffffffff16815260200190815260200160002060008282546110959190613689565b925050819055508160046000600184815481106110b5576110b46136df565b5b9060005260206000200160009054906101000a900473ffffffffffffffffffffffffffffffffffffffff1673ffffffffffffffffffffffffffffffffffffffff1673ffffffffffffffffffffffffffffffffffffffff16815260200190815260200160002060008282546111299190613689565b925050819055505b808061113c90613909565b915050610fea565b508060105461115391906139b2565b8561115e9190613a0c565b600460003373ffffffffffffffffffffffffffffffffffffffff1673ffffffffffffffffffffffffffffffffffffffff16815260200190815260200160002060008282546111ac9190613689565b92505081905550816010546111c191906139b2565b866111cc9190613a0c565b600360003373ffffffffffffffffffffffffffffffffffffffff1673ffffffffffffffffffffffffffffffffffffffff168152602001908152602001600020600082825461121a9190613689565b925050819055506000600f81905550601254426112379190613689565b601181905550611245611abf565b600a819055506001600a5481548110611261576112606136df565b5b9060005260206000200160009054906101000a900473ffffffffffffffffffffffffffffffffffffffff16600b60006101000a81548173ffffffffffffffffffffffffffffffffffffffff021916908373ffffffffffffffffffffffffffffffffffffffff160217905550505050505050505050565b60006010546112e4612442565b106112f257600190506113fa565b60011515600260003373ffffffffffffffffffffffffffffffffffffffff1673ffffffffffffffffffffffffffffffffffffffff16815260200190815260200160002060009054906101000a900460ff1615151461134f57600080fd5b3373ffffffffffffffffffffffffffffffffffffffff166001838154811061137a576113796136df565b5b9060005260206000200160009054906101000a900473ffffffffffffffffffffffffffffffffffffffff1673ffffffffffffffffffffffffffffffffffffffff16146113c557600080fd5b6000826001901b905080600f5417600f819055506010546113e4612442565b14156113f45760019150506113fa565b60009150505b919050565b60125481565b600080600090505b83839050811015611463576000151561143e86868685818110611433576114326136df565b5b905060800201612481565b15151415611450576000915050611469565b808061145b90613909565b91505061140d565b50600190505b9392505050565b600c6020528060005260406000206000915054906101000a900460ff1681565b60046020528060005260406000206000915090505481565b60105481565b60008084905060005b848490508110156115575760008585838181106114d7576114d66136df565b5b9050602002013590508083116115175782816040516020016114fa929190613a40565b604051602081830303815290604052805190602001209250611543565b808360405160200161152a929190613a40565b6040516020818303038152906040528051906020012092505b50808061154f90613909565b9150506114b7565b50858114915050949350505050565b6000806000808551905060005b600182111561178c576000905060005b6002836115909190613981565b8110156116da57876001836115a59190613689565b815181106115b6576115b56136df565b5b60200260200101518883815181106115d1576115d06136df565b5b602002602001015111611629578782815181106115f1576115f06136df565b5b60200260200101519450876001836116099190613689565b8151811061161a576116196136df565b5b60200260200101519350611670565b876001836116379190613689565b81518110611648576116476136df565b5b60200260200101519450878281518110611665576116646136df565b5b602002602001015193505b8484604051602001611683929190613a40565b604051602081830303815290604052805190602001208882815181106116ac576116ab6136df565b5b6020026020010181815250506002826116c59190613689565b915080806116d290613909565b915050611583565b50816002836116e99190613981565b6002846116f69190613981565b6117009190613689565b1461177757866001836117139190613a0c565b81518110611724576117236136df565b5b60200260200101518760028461173a9190613981565b8151811061174b5761174a6136df565b5b60200260200101818152505060016002836117669190613981565b6117709190613689565b9150611787565b6002826117849190613981565b91505b611573565b85876000815181106117a1576117a06136df565b5b60200260200101511494505050505092915050565b60018060058111156117cb576117ca6133c6565b5b60008054906101000a900460ff1660058111156117eb576117ea6133c6565b5b1461182b576040517f08c379a000000000000000000000000000000000000000000000000000000000815260040161182290613ab8565b60405180910390fd5b600554341115611870576040517f08c379a000000000000000000000000000000000000000000000000000000000815260040161186790613b24565b60405180910390fd5b6005546009541061188057600080fd5b6006339080600181540180825580915050600190039060005260206000200160009091909190916101000a81548173ffffffffffffffffffffffffffffffffffffffff021916908373ffffffffffffffffffffffffffffffffffffffff1602179055506001600760003373ffffffffffffffffffffffffffffffffffffffff1673ffffffffffffffffffffffffffffffffffffffff16815260200190815260200160002060006101000a81548160ff02191690831515021790555034600860003373ffffffffffffffffffffffffffffffffffffffff1673ffffffffffffffffffffffffffffffffffffffff168152602001908152602001600020600082825461198a9190613689565b9250508190555034600960008282546119a39190613689565b92505081905550600a60068054905014156119e35760036000806101000a81548160ff021916908360058111156119dd576119dc6133c6565b5b02179055505b601254426119f19190613689565b60118190555050565b60095481565b60008083604051602001611a149190613862565b6040516020818303038152906040528051906020012090508473ffffffffffffffffffffffffffffffffffffffff1660018285600001518660200151876040015160405160008152602001604052604051611a7294939291906138c4565b6020604051602081039080840390855afa158015611a94573d6000803e3d6000fd5b5050506020604051035173ffffffffffffffffffffffffffffffffffffffff16149150509392505050565b60008060001b600d541415611ad75760009050611cb8565b600080600180549050905060008167ffffffffffffffff811115611afe57611afd612e8c565b5b604051908082528060200260200182016040528015611b2c5781602001602082028036833780820191505090505b50905060005b82811015611c2757600a548114611bf3576004600060018381548110611b5b57611b5a6136df565b5b9060005260206000200160009054906101000a900473ffffffffffffffffffffffffffffffffffffffff1673ffffffffffffffffffffffffffffffffffffffff1673ffffffffffffffffffffffffffffffffffffffff1681526020019081526020016000205484611bcc9190613689565b935083828281518110611be257611be16136df565b5b602002602001018181525050611c14565b83828281518110611c0757611c066136df565b5b6020026020010181815250505b8080611c1f90613909565b915050611b32565b50600083600d5442604051602001611c40929190613b44565b6040516020818303038152906040528051906020012060001c611c639190613b6d565b905060005b8251811015611cb257828181518110611c8457611c836136df565b5b60200260200101518211611c9f578095505050505050611cb8565b8080611caa90613909565b915050611c68565b50505050505b90565b600060011515600c60008560600151815260200190815260200160002060009054906101000a900460ff1615151480611d4857506000151560076000856000015173ffffffffffffffffffffffffffffffffffffffff1673ffffffffffffffffffffffffffffffffffffffff16815260200190815260200160002060009054906101000a900460ff161515145b80611da757506000151560076000856020015173ffffffffffffffffffffffffffffffffffffffff1673ffffffffffffffffffffffffffffffffffffffff16815260200190815260200160002060009054906101000a900460ff161515145b80611df85750826040015160086000856000015173ffffffffffffffffffffffffffffffffffffffff1673ffffffffffffffffffffffffffffffffffffffff16815260200190815260200160002054105b15611e065760009050611e55565b600083604051602001611e199190613c02565b604051602081830303815290604052805190602001209050611e4084600001518285611a00565b15611e4f576001915050611e55565b60009150505b92915050565b600b60009054906101000a900473ffffffffffffffffffffffffffffffffffffffff1681565b600080151560026000846000015173ffffffffffffffffffffffffffffffffffffffff1673ffffffffffffffffffffffffffffffffffffffff16815260200190815260200160002060009054906101000a900460ff1615151415611ee85760009050611f3b565b600083604051602001611efb9190612b53565b604051602081830303815290604052805190602001209050611f268360000151828560200151611a00565b15611f35576001915050611f3b565b60009150505b92915050565b600060011515600260003373ffffffffffffffffffffffffffffffffffffffff1673ffffffffffffffffffffffffffffffffffffffff16815260200190815260200160002060009054906101000a900460ff16151514611fa057600080fd5b612006866040518060400160405280600b60009054906101000a900473ffffffffffffffffffffffffffffffffffffffff1673ffffffffffffffffffffffffffffffffffffffff16815260200186803603810190611ffe9190613c1d565b815250611e81565b6120135760009050612439565b6120cc60405180608001604052808460000160208101906120349190612be0565b73ffffffffffffffffffffffffffffffffffffffff1681526020018460200160208101906120629190612be0565b73ffffffffffffffffffffffffffffffffffffffff16815260200184604001358152602001846060013581525060405180606001604052808560800160208101906120ad9190613888565b60ff1681526020018560a0013581526020018560c00135815250611cbb565b156120da5760009050612439565b6000826040516020016120ed9190613d4d565b6040516020818303038152906040528051906020012090506000816040516020016121189190612b53565b60405160208183030381529060405280519060200120905061213c888289896114ae565b61214b57600092505050612439565b60036000600b60009054906101000a900473ffffffffffffffffffffffffffffffffffffffff1673ffffffffffffffffffffffffffffffffffffffff1673ffffffffffffffffffffffffffffffffffffffff16815260200190815260200160002054600360003373ffffffffffffffffffffffffffffffffffffffff1673ffffffffffffffffffffffffffffffffffffffff16815260200190815260200160002060008282546121fb9190613689565b9250508190555060046000600b60009054906101000a900473ffffffffffffffffffffffffffffffffffffffff1673ffffffffffffffffffffffffffffffffffffffff1673ffffffffffffffffffffffffffffffffffffffff16815260200190815260200160002054600460003373ffffffffffffffffffffffffffffffffffffffff1673ffffffffffffffffffffffffffffffffffffffff16815260200190815260200160002060008282546122b29190613689565b92505081905550600060036000600b60009054906101000a900473ffffffffffffffffffffffffffffffffffffffff1673ffffffffffffffffffffffffffffffffffffffff1673ffffffffffffffffffffffffffffffffffffffff16815260200190815260200160002081905550600060046000600b60009054906101000a900473ffffffffffffffffffffffffffffffffffffffff1673ffffffffffffffffffffffffffffffffffffffff1673ffffffffffffffffffffffffffffffffffffffff16815260200190815260200160002081905550601254426123959190613689565b6011819055506000600f819055506123ab611abf565b600a819055506001600a54815481106123c7576123c66136df565b5b9060005260206000200160009054906101000a900473ffffffffffffffffffffffffffffffffffffffff16600b60006101000a81548173ffffffffffffffffffffffffffffffffffffffff021916908373ffffffffffffffffffffffffffffffffffffffff1602179055506001925050505b95945050505050565b600080600f54905060005b60008214612479576001826124629190613a0c565b82169150808061247190613909565b91505061244d565b809250505090565b6000808360405160200161249591906137cf565b6040516020818303038152906040528051906020012090506124dd8360000160208101906124c39190612be0565b82856020018036038101906124d89190613c1d565b611a00565b156124ec5760019150506124f2565b60009150505b92915050565b60008054906101000a900460ff1681565b60076020528060005260406000206000915054906101000a900460ff1681565b600a5481565b60055481565b6006818154811061254557600080fd5b906000526020600020016000915054906101000a900473ffffffffffffffffffffffffffffffffffffffff1681565b6000600182600f54901c169050919050565b600f5481565b60086020528060005260406000206000915090505481565b60036020528060005260406000206000915090505481565b6000600115156125d0868660000135611566565b1515146125dc57600080fd5b6010548383905010156125ee57600080fd5b60008460405160200161260191906137cf565b604051602081830303815290604052805190602001206040516020016126279190613862565b60405160208183030381529060405280519060200120905060005b8484905081101561277b578484828181106126605761265f6136df565b5b90506080020160000160208101906126789190612be0565b73ffffffffffffffffffffffffffffffffffffffff166001838787858181106126a4576126a36136df565b5b90506080020160200160000160208101906126bf9190613888565b8888868181106126d2576126d16136df565b5b905060800201602001602001358989878181106126f2576126f16136df565b5b905060800201602001604001356040516000815260200160405260405161271c94939291906138c4565b6020604051602081039080840390855afa15801561273e573d6000803e3d6000fd5b5050506020604051035173ffffffffffffffffffffffffffffffffffffffff161461276857600080fd5b808061277390613909565b915050612642565b508460000135600d819055508460200135600e8190555060005b8888905081101561284e578888828181106127b3576127b26136df565b5b9050602002013560086000600684815481106127d2576127d16136df565b5b9060005260206000200160009054906101000a900473ffffffffffffffffffffffffffffffffffffffff1673ffffffffffffffffffffffffffffffffffffffff1673ffffffffffffffffffffffffffffffffffffffff16815260200190815260200160002081905550808061284690613909565b915050612795565b5060019150509695505050505050565b6000806005811115612873576128726133c6565b5b60008054906101000a900460ff166005811115612893576128926133c6565b5b146128d3576040517f08c379a00000000000000000000000000000000000000000000000000000000081526004016128ca90613ab8565b60405180910390fd5b6001339080600181540180825580915050600190039060005260206000200160009091909190916101000a81548173ffffffffffffffffffffffffffffffffffffffff021916908373ffffffffffffffffffffffffffffffffffffffff1602179055506001600260003373ffffffffffffffffffffffffffffffffffffffff1673ffffffffffffffffffffffffffffffffffffffff16815260200190815260200160002060006101000a81548160ff02191690831515021790555034600360003373ffffffffffffffffffffffffffffffffffffffff1673ffffffffffffffffffffffffffffffffffffffff16815260200190815260200160002060008282546129dd9190613689565b9250508190555034600560008282546129f69190613689565b92505081905550600e6001805490501415612abe5760016000806101000a81548160ff02191690836005811115612a3057612a2f6133c6565b5b02179055506000600a819055506001600081548110612a5257612a516136df565b5b9060005260206000200160009054906101000a900473ffffffffffffffffffffffffffffffffffffffff16600b60006101000a81548173ffffffffffffffffffffffffffffffffffffffff021916908373ffffffffffffffffffffffffffffffffffffffff1602179055505b50565b600e5481565b60018181548110612ad757600080fd5b906000526020600020016000915054906101000a900473ffffffffffffffffffffffffffffffffffffffff1681565b6000819050919050565b612b1981612b06565b82525050565b6000602082019050612b346000830184612b10565b92915050565b6000819050919050565b612b4d81612b3a565b82525050565b6000602082019050612b686000830184612b44565b92915050565b6000604051905090565b600080fd5b600080fd5b600073ffffffffffffffffffffffffffffffffffffffff82169050919050565b6000612bad82612b82565b9050919050565b612bbd81612ba2565b8114612bc857600080fd5b50565b600081359050612bda81612bb4565b92915050565b600060208284031215612bf657612bf5612b78565b5b6000612c0484828501612bcb565b91505092915050565b60008115159050919050565b612c2281612c0d565b82525050565b6000602082019050612c3d6000830184612c19565b92915050565b600080fd5b600060808284031215612c5e57612c5d612c43565b5b81905092915050565b600080fd5b600080fd5b600080fd5b60008083601f840112612c8c57612c8b612c67565b5b8235905067ffffffffffffffff811115612ca957612ca8612c6c565b5b602083019150836080820283011115612cc557612cc4612c71565b5b9250929050565b600080600060a08486031215612ce557612ce4612b78565b5b6000612cf386828701612c48565b935050608084013567ffffffffffffffff811115612d1457612d13612b7d565b5b612d2086828701612c76565b92509250509250925092565b612d3581612b06565b8114612d4057600080fd5b50565b600081359050612d5281612d2c565b92915050565b600060208284031215612d6e57612d6d612b78565b5b6000612d7c84828501612d43565b91505092915050565b612d8e81612b3a565b8114612d9957600080fd5b50565b600081359050612dab81612d85565b92915050565b60008083601f840112612dc757612dc6612c67565b5b8235905067ffffffffffffffff811115612de457612de3612c6c565b5b602083019150836020820283011115612e0057612dff612c71565b5b9250929050565b60008060008060608587031215612e2157612e20612b78565b5b6000612e2f87828801612d9c565b9450506020612e4087828801612d9c565b935050604085013567ffffffffffffffff811115612e6157612e60612b7d565b5b612e6d87828801612db1565b925092505092959194509250565b6000601f19601f8301169050919050565b7f4e487b7100000000000000000000000000000000000000000000000000000000600052604160045260246000fd5b612ec482612e7b565b810181811067ffffffffffffffff82111715612ee357612ee2612e8c565b5b80604052505050565b6000612ef6612b6e565b9050612f028282612ebb565b919050565b600067ffffffffffffffff821115612f2257612f21612e8c565b5b602082029050602081019050919050565b6000612f46612f4184612f07565b612eec565b90508083825260208201905060208402830185811115612f6957612f68612c71565b5b835b81811015612f925780612f7e8882612d9c565b845260208401935050602081019050612f6b565b5050509392505050565b600082601f830112612fb157612fb0612c67565b5b8135612fc1848260208601612f33565b91505092915050565b60008060408385031215612fe157612fe0612b78565b5b600083013567ffffffffffffffff811115612fff57612ffe612b7d565b5b61300b85828601612f9c565b925050602061301c85828601612d9c565b9150509250929050565b600080fd5b600060ff82169050919050565b6130418161302b565b811461304c57600080fd5b50565b60008135905061305e81613038565b92915050565b60006060828403121561307a57613079613026565b5b6130846060612eec565b905060006130948482850161304f565b60008301525060206130a884828501612d9c565b60208301525060406130bc84828501612d9c565b60408301525092915050565b600080600060a084860312156130e1576130e0612b78565b5b60006130ef86828701612bcb565b935050602061310086828701612d9c565b925050604061311186828701613064565b9150509250925092565b60006080828403121561313157613130613026565b5b61313b6080612eec565b9050600061314b84828501612bcb565b600083015250602061315f84828501612bcb565b602083015250604061317384828501612d43565b604083015250606061318784828501612d43565b60608301525092915050565b60008060e083850312156131aa576131a9612b78565b5b60006131b88582860161311b565b92505060806131c985828601613064565b9150509250929050565b60006131de82612b82565b9050919050565b6131ee816131d3565b82525050565b600060208201905061320960008301846131e5565b92915050565b60006080828403121561322557613224613026565b5b61322f6040612eec565b9050600061323f84828501612bcb565b600083015250602061325384828501613064565b60208301525092915050565b60008060a0838503121561327657613275612b78565b5b600061328485828601612d9c565b92505060206132958582860161320f565b9150509250929050565b6000606082840312156132b5576132b4612c43565b5b81905092915050565b600060e082840312156132d4576132d3612c43565b5b81905092915050565b600080600080600061018086880312156132fa576132f9612b78565b5b600061330888828901612d9c565b955050602086013567ffffffffffffffff81111561332957613328612b7d565b5b61333588828901612db1565b945094505060406133488882890161329f565b92505060a0613359888289016132be565b9150509295509295909350565b60006080828403121561337c5761337b612c43565b5b81905092915050565b600080610100838503121561339d5761339c612b78565b5b60006133ab85828601612c48565b92505060806133bc85828601613366565b9150509250929050565b7f4e487b7100000000000000000000000000000000000000000000000000000000600052602160045260246000fd5b60068110613406576134056133c6565b5b50565b6000819050613417826133f5565b919050565b600061342782613409565b9050919050565b6134378161341c565b82525050565b6000602082019050613452600083018461342e565b92915050565b60008083601f84011261346e5761346d612c67565b5b8235905067ffffffffffffffff81111561348b5761348a612c6c565b5b6020830191508360208202830111156134a7576134a6612c71565b5b9250929050565b60008060008060008060e087890312156134cb576134ca612b78565b5b600087013567ffffffffffffffff8111156134e9576134e8612b7d565b5b6134f589828a01613458565b9650965050602087013567ffffffffffffffff81111561351857613517612b7d565b5b61352489828a01612f9c565b945050604061353589828a01612c48565b93505060c087013567ffffffffffffffff81111561355657613555612b7d565b5b61356289828a01612c76565b92509250509295509295509295565b600082825260208201905092915050565b7f6e6f7420612076616c696461746f720000000000000000000000000000000000600082015250565b60006135b8600f83613571565b91506135c382613582565b602082019050919050565b600060208201905081810360008301526135e7816135ab565b9050919050565b7f6572726f722074696d656f757400000000000000000000000000000000000000600082015250565b6000613624600d83613571565b915061362f826135ee565b602082019050919050565b6000602082019050818103600083015261365381613617565b9050919050565b7f4e487b7100000000000000000000000000000000000000000000000000000000600052601160045260246000fd5b600061369482612b06565b915061369f83612b06565b9250827fffffffffffffffffffffffffffffffffffffffffffffffffffffffffffffffff038211156136d4576136d361365a565b5b828201905092915050565b7f4e487b7100000000000000000000000000000000000000000000000000000000600052603260045260246000fd5b600061371d6020840184612d9c565b905092915050565b61372e81612b3a565b82525050565b60006137436020840184612d43565b905092915050565b61375481612b06565b82525050565b6080820161376b600083018361370e565b6137786000850182613725565b50613786602083018361370e565b6137936020850182613725565b506137a16040830183613734565b6137ae604085018261374b565b506137bc6060830183613734565b6137c9606085018261374b565b50505050565b60006080820190506137e4600083018461375a565b92915050565b600081905092915050565b7f19457468657265756d205369676e6564204d6573736167653a0a333200000000600082015250565b600061382b601c836137ea565b9150613836826137f5565b601c82019050919050565b6000819050919050565b61385c61385782612b3a565b613841565b82525050565b600061386d8261381e565b9150613879828461384b565b60208201915081905092915050565b60006020828403121561389e5761389d612b78565b5b60006138ac8482850161304f565b91505092915050565b6138be8161302b565b82525050565b60006080820190506138d96000830187612b44565b6138e660208301866138b5565b6138f36040830185612b44565b6139006060830184612b44565b95945050505050565b600061391482612b06565b91507fffffffffffffffffffffffffffffffffffffffffffffffffffffffffffffffff8214156139475761394661365a565b5b600182019050919050565b7f4e487b7100000000000000000000000000000000000000000000000000000000600052601260045260246000fd5b600061398c82612b06565b915061399783612b06565b9250826139a7576139a6613952565b5b828204905092915050565b60006139bd82612b06565b91506139c883612b06565b9250817fffffffffffffffffffffffffffffffffffffffffffffffffffffffffffffffff0483118215151615613a0157613a0061365a565b5b828202905092915050565b6000613a1782612b06565b9150613a2283612b06565b925082821015613a3557613a3461365a565b5b828203905092915050565b6000613a4c828561384b565b602082019150613a5c828461384b565b6020820191508190509392505050565b7f496e76616c696420706861736500000000000000000000000000000000000000600082015250565b6000613aa2600d83613571565b9150613aad82613a6c565b602082019050919050565b60006020820190508181036000830152613ad181613a95565b9050919050565b7f496e76616c69642050617274696369706174652046756e640000000000000000600082015250565b6000613b0e601883613571565b9150613b1982613ad8565b602082019050919050565b60006020820190508181036000830152613b3d81613b01565b9050919050565b6000604082019050613b596000830185612b44565b613b666020830184612b10565b9392505050565b6000613b7882612b06565b9150613b8383612b06565b925082613b9357613b92613952565b5b828206905092915050565b613ba781612ba2565b82525050565b608082016000820151613bc36000850182613b9e565b506020820151613bd66020850182613b9e565b506040820151613be9604085018261374b565b506060820151613bfc606085018261374b565b50505050565b6000608082019050613c176000830184613bad565b92915050565b600060608284031215613c3357613c32612b78565b5b6000613c4184828501613064565b91505092915050565b6000613c596020840184612bcb565b905092915050565b6000613c70602084018461304f565b905092915050565b613c818161302b565b82525050565b60e08201613c986000830183613c4a565b613ca56000850182613b9e565b50613cb36020830183613c4a565b613cc06020850182613b9e565b50613cce6040830183613734565b613cdb604085018261374b565b50613ce96060830183613734565b613cf6606085018261374b565b50613d046080830183613c61565b613d116080850182613c78565b50613d1f60a083018361370e565b613d2c60a0850182613725565b50613d3a60c083018361370e565b613d4760c0850182613725565b50505050565b600060e082019050613d626000830184613c87565b9291505056fea26469706673582212208c8fbf47175a1f95913310af17f4c03d1cd3fae7b867bad0708e63b7bd8c61ec64736f6c634300080a0033",
  "immutableReferences": {},
  "source": "// // SPDX-License-Identifier: MIT\npragma solidity >=0.8.10;\npragma experimental ABIEncoderV2;\n\n// import \"./ConvertLib.sol\";\n// import \"./MerkleMultiProof.sol\";\n// import \"./MerkleProof.sol\";\n\ncontract MetaCoin {\n\tenum Phase {\n\t\tOpen,Join,Update,Exchange,Close,Cancelled\n\t}\n\n    struct ECSignature {\n        uint8 v;\n        bytes32 r;\n        bytes32 s;\n    }\n\n\tstruct SigOfAccount{\n\t\taddress account;\n\t\tECSignature sig;\n\t}\n\n\tstruct Payment {\n\t\taddress from;\n\t\taddress to;\n\t\tuint256 amounts;\n\t\tuint256 nonce;\n\t}\n\n\tstruct PaymentSig {\n\t\taddress from;\n\t\taddress to;\n\t\tuint256 amounts;\n\t\tuint256 nonce;\n\t\t// Sig\n\t\tuint8 v;\n\t\tbytes32 r;\n\t\tbytes32 s;\n\t}\n\n\tstruct AccountBalances {\n\t\taddress account;\n\t\tuint256 balances;\n\t}\n\n\tstruct RootState {\n\t\taddress account;\n\t\tbytes32 root;\n\t}\n\n\tstruct SnapShot {\n\t\tbytes32 stateRoot;\n\t\tbytes32 paymentRoot;\n\t\tuint256 stateHeight;\n\t\tuint256 totalFee;\n\t}\n\n\tPhase public _phase;\n\n\n\taddress payable[] public _validators;\n\tmapping(address => bool) public _validatorsBook;\n\tmapping(address => uint256) public _collateralOfValidator;\n\tmapping(address => uint256) public _feeOfValidator;\n\tuint256 public _allCollateral;\n\n\taddress payable[] public _participates;\n\tmapping(address => bool) public _participatesBook;\n\tmapping(address => uint256) public _balancesOfParticipate;\n\tuint256 public _allBalances;\n\t\n\tuint256 public _leaderIndex;\n\taddress payable public _leader;\n\n\tmapping(uint256 => bool) public _usedNonces;\n\tbytes32 public _currentRoot;\n\tbytes32 public _currentPaymentRoot;\n\n\tuint256 public _rejectBook;\n\n\tuint256 public _T;\n\n\tuint256 public _expiration;\n\tuint256 public _duration;\n\n\tmodifier atPhase(Phase phase) {\n        require(_phase == phase, 'Invalid phase');\n        _;\n    }\n\n\tconstructor() {\n\t\t_phase = Phase.Open;\n\t\t_T = 7;\n\t\t_duration = 1 hours;\n\t}\n\n\tfunction candidateFund() public payable atPhase(Phase.Open) {\n\t\t_validators.push(payable(msg.sender));\n\t\t_validatorsBook[msg.sender] = true;\n\t\t_collateralOfValidator[msg.sender] += msg.value;\n\t\t_allCollateral += msg.value;\n\t\tif(_validators.length == 14){\n\t\t\t_phase = Phase.Join;\n\t\t\t_leaderIndex = 0;\n\t\t\t_leader = _validators[0];\n\t\t}\n\t}\n\n\tfunction participatesFund() public payable atPhase(Phase.Join) {\n\t\trequire(msg.value <= _allCollateral, 'Invalid Participate Fund');\n\t\trequire(_allBalances < _allCollateral);\n\n\t\t_participates.push(payable(msg.sender));\n\t\t_participatesBook[msg.sender] = true;\n\t\t_balancesOfParticipate[msg.sender] += msg.value;\n\t\t_allBalances += msg.value;\n\t\tif(_participates.length == 10){\n\t\t\t_phase = Phase.Exchange;\n\t\t}\n\n\t\t_expiration  = block.timestamp + _duration;\n\t}\n\n    function checkPrefixedSig(address pk, bytes32 message, ECSignature memory sig)\n    public pure returns(bool) {\n        bytes32 prefixedHash = keccak256(abi.encodePacked(\"\\x19Ethereum Signed Message:\\n32\", message));\n\n        return ecrecover(prefixedHash, sig.v, sig.r, sig.s) == pk;\n    }\n\n\tfunction validRoot(bytes32 paymentRoot, SigOfAccount memory sigOfaccount)\n    public view returns(bool) {\n\t\tif( _validatorsBook[sigOfaccount.account] == false ) return false;\n\n        bytes32 message = keccak256(abi.encode(paymentRoot));\n        if (checkPrefixedSig(sigOfaccount.account, message, sigOfaccount.sig)) {\n            return true;\n        }\n        return false;\n    }\n\n\t// function validBatchOfRoot(RootState[] calldata stateRootArr, ECSignature[] calldata sigArr)\n    // public view returns(bool) {\n\t// \tif(stateRootArr.length != _T && sigArr.length != _T) return false;\n\t\t\n\t// \tfor(uint i = 0; i<stateRootArr.length; i++){\n\t// \t\tif(validRoot(stateRootArr[i],sigArr[i]) == false) return false;\n\t// \t}\n\t// \treturn true;\n    // }\n\n\tfunction updateState(uint[] calldata balancesArr, bytes32[] memory leaves, SnapShot calldata snapshot, SigOfAccount[] calldata sigOfAccount) public returns(bool){\n\t\t//1 \n\t\t// if(!isGeneratedRoot(leaves, snapshot.stateRoot)) return false;\n\t\trequire(isGeneratedRoot(leaves, snapshot.stateRoot) == true);\n\t\t//2 roott\n\t\t// if(!validBatchOfSnapShot(snapshot, sigOfAccount)) return false;\n\t\trequire(sigOfAccount.length >= _T);\n\t\tbytes32 prefixedHash = keccak256(abi.encodePacked(\"\\x19Ethereum Signed Message:\\n32\", keccak256(abi.encode(snapshot))));\n\t\tfor(uint i = 0; i<sigOfAccount.length; i++){\n        \t// if(ecrecover(prefixedHash, sigOfAccount[i].sig.v, sigOfAccount[i].sig.r, sigOfAccount[i].sig.s) != sigOfAccount[i].account){\n\t\t\t// \treturn false;\n\t\t\t// }\n\t\t\trequire(ecrecover(prefixedHash, sigOfAccount[i].sig.v, sigOfAccount[i].sig.r, sigOfAccount[i].sig.s) == sigOfAccount[i].account);\n\t\t}\n\t\t\n\t\t//3 \n\t\t_currentRoot = snapshot.stateRoot;\n\t\t_currentPaymentRoot = snapshot.paymentRoot;\n\t\tfor(uint i = 0; i < balancesArr.length; i++){\n\t\t\t_balancesOfParticipate[_participates[i]] = balancesArr[i];\n\t\t}\n\n\t\t// reject\n\t\t// uint allPenaltiesCollateral;\n\t\t// uint allPenaltiesFee;\n\t\t// uint alvPenalitiesCollateral = allPenaltiesCollateral / sigOfAccount.length;\n\t\t// uint alvPenalitiesFee = allPenaltiesFee / sigOfAccount.length;\n\t\t// address payable tempValidators;\n\t\t// for(uint i = 0; i< _validators.length; i++){\n\t\t// \tif(readRejectBook(i)==1){\n\t\t// \t\ttempValidators = _validators[i];\n\t\t// \t\tallPenaltiesCollateral += _collateralOfValidator[tempValidators];\n\t\t// \t\tallPenaltiesFee += _feeOfValidator[tempValidators];\n\t\t// \t}\n\t\t// }\n\n\t\t// // Leaderfee\n\t\t// uint validatorFee = snapshot.totalFee  - snapshot.totalFee / 2;\n\t\t// uint alvOfFee = validatorFee / sigOfAccount.length;\n\t\t// _feeOfValidator[_leader] += snapshot.totalFee / 2 + (validatorFee - alvOfFee * sigOfAccount.length);\n\t\t// for(uint i = 0; i < sigOfAccount.length; i++){\n\t\t// \t_feeOfValidator[sigOfAccount[i].account] += alvOfFee + alvPenalitiesFee;\n\t\t// \t_collateralOfValidator[sigOfAccount[i].account] += alvPenalitiesCollateral;\n\t\t// }\n\n\t\t// _rejectBook = 0;\n\t\t// _expiration  = block.timestamp + _duration;\n\n\t\treturn true;\n\t}\n\n\tfunction validSnapShot(SnapShot calldata snapshot, SigOfAccount calldata sigOfAccount) public pure returns(bool) {\n\t\tbytes32 message = keccak256(abi.encode(snapshot));\n\t\tif (checkPrefixedSig(sigOfAccount.account, message, sigOfAccount.sig)) {\n            return true;\n        }\n        return false;\n\t}\n\n\tfunction validBatchOfSnapShot(SnapShot calldata snapshot, SigOfAccount[] calldata sigOfAccount)\n\tpublic pure returns(bool) {\n\t\tfor(uint i = 0; i<sigOfAccount.length; i++){\n\t\t\tif(validSnapShot(snapshot, sigOfAccount[i]) == false){\n\t\t\t\treturn false;\n\t\t\t}\n\t\t}\n\t\treturn true;\n\t}\n\n\tfunction validPayment(Payment memory payment, ECSignature memory sig)\n    public view returns(bool) {\n\t\tif(_usedNonces[payment.nonce] == true || \n\t\t\t_participatesBook[payment.from] == false ||\n\t\t \t_participatesBook[payment.to] == false ||\n\t\t \t_balancesOfParticipate[payment.from] < payment.amounts) {\n\t\t\treturn false;\n\t\t}\n\n        bytes32 message = keccak256(abi.encode(payment));\n        if (checkPrefixedSig(payment.from, message, sig)) {\n            return true;\n        }\n        return false;\n    }\n\n\t// function validBatchOfPayment(Payment[] calldata paymentArr, ECSignature[] calldata sigArr)\n\t// public view returns(bool) {\n\t// \tfor(uint i = 0; i<paymentArr.length; i++){\n\t// \t\tif(validPayment(paymentArr[i],sigArr[i]) == false){\n\t// \t\t\treturn false;\n\t// \t\t}\n\t// \t}\n\t// \treturn true;\n\t// }\n\n\t// // \n\t// function updatePayment(Payment[] calldata paymentArr, ECSignature[] calldata sigArr)\n\t// public atPhase(Phase.Exchange) returns(bool){\n\t// \tfor(uint i = 0; i<paymentArr.length; i++){\n\t// \t\tif(validPayment(paymentArr[i],sigArr[i]) == false){\n\t// \t\t\treturn false;\n\t// \t\t}\n\t// \t}\n\n\t// \tfor(uint i = 0; i<paymentArr.length; i++){\n\t// \t\t_balancesOfParticipate[paymentArr[i].from] -= paymentArr[i].amounts;\n\t// \t\t_balancesOfParticipate[paymentArr[i].to] += paymentArr[i].amounts;\n\t// \t}\n\n\t// \t_phase = Phase.Update;\n\t// \treturn true;\n\t// }\n\n\tfunction selectLeader() public returns(uint256 leaderIndex){\n\t\tif(_currentRoot == 0x0){\n\t\t\treturn 0;\n\t\t}\n\n\t\tuint256 allFee= 0;\n\t\tuint256 validatorsLength = _validators.length;\n\t\tuint256[] memory tempVector = new uint256[](validatorsLength);\n\t\tfor(uint i = 0; i < validatorsLength; i++){\n\t\t\tif(i != _leaderIndex){\n\t\t\t\tallFee += _feeOfValidator[_validators[i]];\n\t\t\t\ttempVector[i] = allFee;\n\t\t\t}else{\n\t\t\t\ttempVector[i] = allFee;\n\t\t\t}\n\t\t}\n\n\t\tuint256 random = uint256(keccak256(abi.encode(_currentRoot, block.timestamp))) % allFee;\n\t\tfor(uint i = 0; i < tempVector.length; i++){\n\t\t\tif(random <= tempVector[i]){\n\t\t\t\treturn i;\n\t\t\t}\n\t\t}\n\t}\n\n\tfunction verify(bytes32 root, bytes32 leaf,bytes32[] calldata proof) public returns (bool){\n    \tbytes32 computedHash = leaf;\n\n    \tfor (uint256 i = 0; i < proof.length; i++) {\n    \t\tbytes32 proofElement = proof[i];\n    \t\tif (computedHash <= proofElement) {\n    \t    // Hash(current computed hash + current element of the proof)\n    \t    \tcomputedHash = keccak256(abi.encodePacked(computedHash, proofElement));\n    \t\t} else {\n    \t    // Hash(current element of the proof + current computed hash)\n    \t    \tcomputedHash = keccak256(abi.encodePacked(proofElement, computedHash));\n    \t\t}\n    \t}\n\n    \t// Check if the computed hash (root) is equal to the provided root\n    \treturn computedHash == root;\n  \t}\n\n\tfunction isGeneratedRoot(bytes32[] memory tempHashes, bytes32 root) public returns(bool){\n\t\tbytes32 left;\n\t\tbytes32 right;\n\t\tuint L = tempHashes.length;\n\t\tuint j = 0;\n\n\t\twhile(L > 1){\n\t\t\tj = 0;\n\t\t\tfor(uint i = 0; i < L/2; i++){\n\t\t\t\tif(tempHashes[j] <= tempHashes[j+1]){\n\t\t\t\t\tleft = tempHashes[j];\n\t\t\t\t\tright = tempHashes[j+1];\n\t\t\t\t}else{\n\t\t\t\t\tleft = tempHashes[j+1];\n\t\t\t\t\tright = tempHashes[j];\n\t\t\t\t}\n\t\t\t\ttempHashes[i] = keccak256(abi.encodePacked(left, right));\n\t\t\t\tj += 2;\n\t\t\t}\n\t\t\tif((L/2 + L/2) != L){\n\t\t\t\ttempHashes[L/2] = tempHashes[L-1];\n\t\t\t\tL = L/2 + 1;\n\t\t\t}else{\n\t\t\t\tL = L/2;\n\t\t\t}\n\t\t}\n\t\treturn tempHashes[0] == root;\n\t}\n\t\n\tfunction TxFraudProof(bytes32 root, bytes32[] calldata proof, ECSignature calldata rootSig, PaymentSig calldata paymentSig) public returns(bool){\n\t\trequire(_validatorsBook[msg.sender] == true);\n\n\t\t// 1, leaderroot\n\t\tif(!validRoot(root,SigOfAccount({account: _leader,sig: rootSig}))) return false;\n\t\t// 2. \n\t\tif(validPayment(Payment({from:paymentSig.from, to:paymentSig.to, amounts: paymentSig.amounts, nonce: paymentSig.nonce}), \n\t\t\t\t\t\tECSignature({v:paymentSig.v,r:paymentSig.r,s:paymentSig.s}) )) return false;\n\t\t// leaf\n\t\tbytes32 prefixedHash = keccak256(abi.encode(paymentSig));\n\t\tbytes32 leaf = keccak256(abi.encode(prefixedHash));\n\t\t// 3. merkle tree \n\t\tif(!verify(root, leaf, proof)) return false;\n\n\t\t// 4. FEE\n\t\t_collateralOfValidator[msg.sender] += _collateralOfValidator[_leader];\n\t\t_feeOfValidator[msg.sender] += _feeOfValidator[_leader];\n\t\t_collateralOfValidator[_leader] = 0;\n\t\t_feeOfValidator[_leader] = 0;\n\n\t\t// 5. \n\t\t_expiration  = block.timestamp + _duration;\n\t\t_rejectBook = 0;\n\t\t_leaderIndex = selectLeader();\n\t\t_leader = _validators[_leaderIndex];\n\n\t\treturn true;\n\t}\n\n\tfunction writeRejectBook(uint256 id)public returns(bool) {\n\t\tif(countRejectBook()>=_T) return true;\n\t\trequire(_validatorsBook[msg.sender] == true);\n\t\trequire(_validators[id] == msg.sender);\n\n\t\tuint temp = 1<<id;\n\t\t_rejectBook = _rejectBook|temp;\n\n\t\t//2f+1\n\t\tif (countRejectBook() == _T){\n\t\t\treturn true;\n\t\t}else{\n\t\t\treturn false;\n\t\t}\n\t\t\t\n\t}\n\t\n\tfunction readRejectBook(uint256 id)public view returns(uint256) {\n\t\treturn (_rejectBook >> id)&1;\n\t}\n\n\tfunction countRejectBook()public view returns(uint256) {\n\t\tuint temmp = _rejectBook;\n\t\tuint count;\n\t\twhile (temmp !=0){\t\t\t\n\t\t\ttemmp &= temmp -1;\n\t\t\tcount++;\n\t\t}\n\t\treturn count;\n\t}\n\n\t// \n\tfunction punishErrorVoter(SnapShot calldata snapshot, SigOfAccount[] calldata sigOfAccount) public {\n\t\trequire(_validatorsBook[msg.sender] == true, \"not a validator\");\n\t\trequire(countRejectBook() >= _T);\n\t\t// leaderFEEreject\n\t\tuint256 punishCollateral = _collateralOfValidator[_leader];\n\t\tuint256 punishFee = _feeOfValidator[_leader];\n\t\t_collateralOfValidator[_leader] = 0;\n\t\t_feeOfValidator[_leader] = 0;\n\n\t\taddress tempAccount;\n\t\tbytes32 prefixedHash = keccak256(abi.encodePacked(\"\\x19Ethereum Signed Message:\\n32\", keccak256(abi.encode(snapshot))));\n\t\tfor(uint i = 0; i<sigOfAccount.length; i++){\n\t\t\t// FEEreject\n\t\t\ttempAccount = sigOfAccount[i].account;\n\t\t\tif(ecrecover(prefixedHash, sigOfAccount[i].sig.v, sigOfAccount[i].sig.r, sigOfAccount[i].sig.s) == tempAccount){\n\t\t\t\tpunishCollateral += _collateralOfValidator[tempAccount];\n\t\t\t\tpunishFee += _feeOfValidator[tempAccount];\n\t\t\t\t_collateralOfValidator[tempAccount] = 0;\n\t\t\t\t_feeOfValidator[tempAccount] = 0;\n\t\t\t}\n\t\t}\n\n\t\tuint256 alvCollateral = punishCollateral / _T;\n\t\tuint256 alvFee = punishFee / _T;\n\t\tfor(uint i = 0; i < _validators.length; i++){\n\t\t\tif (readRejectBook(i) == 1){\n\t\t\t\t_collateralOfValidator[_validators[i]] += alvCollateral;\n\t\t\t\t_feeOfValidator[_validators[i]] += alvFee;\n\t\t\t}\n\t\t}\n\n\t\t_feeOfValidator[msg.sender] += punishFee - _T * alvFee;\n\t\t_collateralOfValidator[msg.sender] += punishCollateral - _T * alvCollateral;\n\n\t\t_rejectBook = 0;\n\t\t_expiration  = block.timestamp + _duration;\n\t\t_leaderIndex = selectLeader();\n\t\t_leader = _validators[_leaderIndex];\n\t}\n\n\t// \n\tfunction triggerSelectLeader() public{\n\t\trequire(_validatorsBook[msg.sender] == true, \"not a validator\");\n\t\trequire(block.timestamp >= _expiration, \"error timeout\");\n\n\t\t_rejectBook = 0;\n\t\t_expiration  = block.timestamp + _duration;\n\t\t_leaderIndex = selectLeader();\n\t\t_leader = _validators[_leaderIndex];\n\t}\n}\n",
  "sourcePath": "/home/hrx/nodetest/MeteCoin/metacoin-box/contracts/MetaCoin.sol",
  "compiler": {
    "name": "solc",
    "version": "0.8.10+commit.fc410830.Emscripten.clang"
  },
  "schemaVersion": "3.4.3",
  "updatedAt": "2021-12-14T13:28:30.813Z",
  "devdoc": {
    "kind": "dev",
    "methods": {},
    "version": 1
  },
  "userdoc": {
    "kind": "user",
    "methods": {},
    "version": 1
  }
}